:020000040800F2
:10000000B01500206D0B0008690900086B09000895
:100010006F09000873090008770900080000000054
:100020000000000000000000000000007B09000844
:100030007D090008000000007F0900088109000810
:10004000870B0008870B0008870B0008870B000848
:10005000870B0008870B0008870B0008870B000838
:10006000870B0008870B0008B72F0008870B0008D4
:10007000870B0008870B0008870B0008870B000818
:10008000870B0008870B0008870B0008870B000808
:10009000870B0008870B0008870B0008870B0008F8
:1000A000870B0008870B0008870B0008870B0008E8
:1000B000870B0008D1320008870B0008870B000867
:1000C000870B0008870B0008870B0008870B0008C8
:1000D000870B0008B7300008870B0008870B000863
:1000E000870B0008870B0008870B0008870B0008A8
:1000F000870B0008870B0008870B0008870B000898
:10010000870B0008870B0008870B0008870B000887
:10011000870B0008870B0008A9310008870B00082F
:10012000870B0008870B0008870B0008870B000867
:10013000DFF80CD004F088FB0048004745010008B8
:10014000B015002002F008FE02F070FE02F044FF3D
:1001500002F05EFF02F0FAFF03F05CF803F0EEF845
:1001600003F0B9F903F0BDFC03F097FB03F088FE40
:1001700003F004FF02F090FE02F0E2FE03F044FD03
:1001800003F0B8FF002003F0F9FF4FF4E06000F047
:10019000FFFC28E3FE480078012808D1FD480068EC
:1001A00080F08000FB4908600020F9490870FA4996
:1001B000088804F0FDF8824604F03CF90646002267
:1001C000F64B04F07DF804460022F54B04F006F8E7
:1001D000804604F073F9F3490860EF49488804F059
:1001E000E7F8824604F026F980460022EC4B03F043
:1001F000F5FF06460022E94B04F062F8044604F0DD
:100200005DF9E9490860E948007858B303F055FE04
:10021000E74908800846B0F90000002810DA0846CF
:10022000B0F90000404204F0C8F80646E14AE24B4B
:1002300003F0D4FF044604F041F9E04908600EE001
:10024000DB48B0F9000004F0B8F80646D94ADA4BAA
:1002500003F0C4FF044604F031F9D84908600020D7
:10026000D2490870D64803F0EFFED6490870D64848
:100270000078012821D1142002F0ABFD1021D348D1
:1002800001F0C7F9B0B9D2480078401C032190FBB7
:10029000F1F201FB1200CE4908700020CD49086040
:1002A000CD4908704FF48041CC4801F0CEF90020D0
:1002B000CB4908700020C4490870C548007801285F
:1002C00002D0022873D108E1BC48006804F0B2F8FB
:1002D00004460022C34B04F0D9F813D3B248006897
:1002E00004F0A8F804460022BF4B04F0CFF809D36D
:1002F000AC48006804F09EF804460022BB4B04F0B2
:10030000C5F831D24FF48041B44801F09CF9AB48B4
:10031000006804F08FF804460022B24B04F0B6F8EF
:1003200004D2B3A1B74804F001FB26E09E48006860
:1003300004F080F804460022AB4B04F0A7F804D286
:10034000B1A1B04804F0F2FA17E09648006804F052
:1003500071F804460022A54B04F098F80DD2AFA125
:10036000A84804F0E3FA08E04FF480419B4801F00C
:100370006CF9AFA1A34804F0D9FA9048006804F0E2
:1003800059F804460022AF4B04F080F809D38648A0
:10039000006804F04FF804460022944B04F076F80D
:1003A00006D201208B4908608B49087019E0DAE019
:1003B0008248006804F03EF804460022A14B04F095
:1003C0004DF80ED27848006804F034F80446002254
:1003D000864B04F043F804D200207E4908607E4931
:1003E00008707648006804F025F804460022964B11
:1003F00004F04CF809D36C48006804F01BF804467C
:100400000022924B04F042F806D2002003F0B6FE20
:1004100001208F49087019E06848006804F00AF864
:1004200004460022884B04F019F809D35E4800689E
:1004300004F000F804460022844B04F00FF805D2C3
:10044000B42003F09BFE0020814908705C490878C5
:1004500003F0C4FF044600227C4B04F017F806D2D8
:10046000002003F08BFE01207949087019E05449FF
:10047000087803F0B3FF04460022764B04F006F838
:1004800005D20120534908605349087009E0B4209F
:1004900003F074FE00206E4908704E4908604E4912
:1004A00008706DA1714804F041FA71A1554803F03C
:1004B00079FE88B96648007808B16FA000E070A0A6
:1004C00003464548007808B16FA000E06FA00246DF
:1004D0006FA14C4804F02AFA45E071A1634804F08A
:1004E00025FA02F0ECFC73490870084600780228EF
:1004F00011D13948007828B90120364908603649B9
:10050000087004E000203349086033490870322045
:1005100002F05FFC14E067480078032806D1002051
:1005200003F02CFE01204A49087009E06148007878
:10053000042805D1B42003F021FE002044490870AE
:100540004348007808B14CA000E04DA00346224883
:10055000007808B14CA000E04CA002464CA129480C
:1005600004F0E4F900BF00BF1023404A002101203D
:1005700003F001F81023234A0021022002F0FBFFC0
:100580000848006803F056FF044622460B4693E0F5
:10059000720000200C0801407A00002000FEAF40ED
:1005A00000005940080000200C00002076000020C8
:1005B000100000209A9999999999B93F1400002048
:1005C000180000201D0000206C00002000100140D9
:1005D0000000002090012142010000200014014091
:1005E000030000200000444000C0524000004E4084
:1005F000416C61726D3A2054454D5020484947483E
:10060000000000002F000020416C61726D3A20470D
:10061000415320484947482000000000416C617266
:100620006D3A204C4951204C4F57202000000000CB
:1006300053797374656D204E6F726D616C2020204C
:10064000000000000000394000003E40000049402A
:1006500002000020008056404D6F64653A204155ED
:10066000544F202020202020000000001E000020E9
:10067000416C61726D0000004F50454E000000005B
:10068000434C5344000000004F4E20004F464600AC
:1006900046414E3A25732056454E543A2573000084
:1006A0004D6F64653A204D414E554C20202020204E
:1006B00000000000040000204BA14F4804F036F970
:1006C0004D4A0021084603F069F94C48006803F0E0
:1006D000B1FE044622460B4649A1474804F026F9DC
:1006E000454A0221002003F059F94948C37882782D
:1006F00048A1414804F01AF93F4A0421002003F0C0
:100700004DF948480078012806D14148027846A1B1
:10071000394804F00BF903E047A1374804F006F923
:10072000354A0621002003F039F947A004F0EEF81D
:100730004C480078012801D14BA000E04CA00146B4
:100740004DA004F0E3F85148007810B1AFF2D800A2
:1007500000E04FA0014650A004F0D8F854480078BB
:1007600008B154A001E0AFF2DC00014652A004F051
:10077000CDF85648006803F05DFE044622460B465D
:1007800053A004F0C3F81D48006803F053FE04466C
:1007900022460B4654A004F0B9F85948006803F00B
:1007A00049FE044622460B4656A004F0AFF81D4809
:1007B0000078012805D11648017858A004F0A6F861
:1007C00002E05CA004F0A2F86148007810B1AFF23A
:1007D000581000E02EA001465EA004F097F84FF4F8
:1007E0007A7002F0F6FAD5E44C696768743A252EFF
:1007F00031662525202020008C1100200C000020CF
:1008000043483420203A252E31662525202020001B
:100810001800002054656D70203A25642E2564432D
:10082000202000001D00002048756D69203A2564D5
:10083000252520200000000048756D69203A45728A
:10084000726F7220202020000D0A2D2D2D2053655F
:100850006E736F7220537461747573202D2D2D0D7E
:100860000A000000000000204155544F0000000025
:100870004D414E55414C00004D6F646520202020B5
:10088000202020203A2025730D0A000002000020BD
:10089000434C4F534500000056656E7420537461FD
:1008A000747573203A2025735C725C6E0000000042
:1008B000010000204F4E000046616E2053746174A9
:1008C000757320203A2025730D0A000008000020CF
:1008D0004C69676874204C6576656C203A20252E3B
:1008E00031662025250D0A00536D6F6B65204C6520
:1008F00076656C203A20252E31662025250D0A00CC
:100900001400002054656D70657261747572652005
:100910003A20252E316620430D0A000048756D6986
:1009200064697479202020203A2025642025250D33
:100930000A00000048756D696469747920202020E0
:100940003A2052656164204572726F720D0A000090
:10095000030000204375727461696E2020202020FE
:100960003A2025730D0A0000704700BFFEE700BF64
:10097000FEE700BFFEE700BFFEE770477047704725
:10098000704700000CB50020019000906C48006892
:1009900040F480306A49086000BF6948006800F48C
:1009A000003000900198401C0190009818B90198FF
:1009B000B0F5A06FF1D16248006800F4003010B1CA
:1009C0000120009001E0002000900098012843D110
:1009D0005C48006840F010005A490860084600680A
:1009E00020F0030008600846006840F0020008603C
:1009F0005348406852494860084640684860084685
:100A0000406840F4806048600846406820F47C10EC
:100A100048600846406840F488104860084600680E
:100A200040F08070086000BF4548006800F000702A
:100A30000028F9D04248406820F00300404948604F
:100A40000846406840F00200486000BF3C484068EB
:100A500000F00C000828F9D10CBD10B5FFF792FF8B
:100A600010BD10B53648006840F0010034490860F8
:100A700008464068344908403149486008460068E3
:100A8000324908402E4908600846006820F480205A
:100A900008600846406820F4FE0048604FF41F00DC
:100AA0008860FFF7DAFF4FF000602949086010BD49
:100AB00010B5002100200022214B5B6803F00C01DF
:100AC00021B1042906D0082928D107E0214B224C66
:100AD000236027E0214B204C236023E0184B5B6808
:100AE00003F47010164B5B6803F48032022303EBAF
:100AF000904022B91A4B4343174C23600DE0104B32
:100B00005B6803F4003323B1164B4343124C23605C
:100B100003E0124B4343104C236003E00D4B0E4C9B
:100B2000236000BF00BF064B5B68C3F303130E4C8A
:100B3000E15C094B1B68CB40074C236010BD0000F3
:100B400000100240002002400000FFF8FFFFF6FE08
:100B500008ED00E000127A0040000020001BB70002
:100B600000093D00808D5B0044000020064880475E
:100B700006480047FEE7FEE7FEE7FEE7FEE7FEE782
:100B8000FEE7FEE7FEE7FEE7630A00083101000822
:100B900031490143314A1160704770B5002100238B
:100BA0000F22C47804B32D4C246804F4E064C4F527
:100BB000E064210AC1F10403CA40447804FA03F155
:100BC0008478144021430901254C0678A155047806
:100BD00004F01F050124AC4005786D11AD0005F14E
:100BE000E025C5F8004109E0047804F01F05012460
:100BF000AC401C4D0678761145F8264070BD1A4A67
:100C00000A400243154B1B1F1A60704739B1134A43
:100C1000121D12680243114B1B1D1A6006E00F4A99
:100C2000121D126882430D4B1B1D1A607047042869
:100C300008D14FF0E021096941F004014FF0E022B2
:100C4000116107E04FF0E021096921F004014FF044
:100C5000E0221161704700000000FA050CED00E091
:100C600000E400E080E100E080FFFF1F10B50446D3
:100C7000FA48844208D10121401500F00DFF0021FF
:100C8000601500F009FF17E0F548844208D1012102
:100C9000001500F001FF0021201500F0FDFE0BE023
:100CA000F048844208D10121C80300F0F5FE00217C
:100CB0004FF4004000F0F0FE10BD30B502460020B9
:100CC00000235068E84C20400D790C6844EA052464
:100CD000204350609068E54C2040D1E902542C43F9
:100CE0004D7944EA450420439060D06A20F47000B6
:100CF0000C7C641EE4B2234340EA0350D06230BD52
:100D000000210160017141718160C16001210174A4
:100D1000704721B1826842F00102826003E082687C
:100D200022F001028260704721B1826842F4807231
:100D3000826003E0826822F480728260704710B59E
:100D40000023CBB21AB144681C43446002E04468FB
:100D50009C43446010BD816841F008018160704788
:100D6000014600208A6802F008020AB1012000E072
:100D700000207047816841F004018160704701469E
:100D800000208A6802F004020AB1012000E000207D
:100D9000704721B1826842F4A002826003E0826859
:100DA00022F4A00282607047014600208A6802F4A3
:100DB00080020AB1012000E00020704710B50A4609
:100DC00000210023416821F46041531E41EA433170
:100DD000416010BD21B1426842F40062426003E00C
:100DE000426822F4006242607047F0B504460D4646
:100DF00000200021092D11DDE068A5F10A0606EBAF
:100E00004607072606FA07F18843A5F10A0606EB0E
:100E1000460603FA06F10843E0600CE0206905EBA2
:100E20004507072606FA07F1884305EB450603FA4E
:100E300006F108432061072A0FDA606B561E06EBA5
:100E400086071F2606FA07F18843561E06EB86061C
:100E500005FA06F10843606322E00D2A0FDA206BE1
:100E6000D61F06EB86071F2606FA07F18843D61F12
:100E700006EB860605FA06F10843206310E0E06AF7
:100E8000A2F10D0606EB86071F2606FA07F1884336
:100E9000A2F10D0606EB860605FA06F10843E062AC
:100EA000F0BD21B1826842F48012826003E0826862
:100EB00022F48012826070470146C86C80B270478D
:100EC00066484C300068704721B1426842F4806245
:100ED000426003E0426822F480624260704721B1C0
:100EE000426842F48052426003E0426822F4805239
:100EF000426070470A460021816821F4E0411143B5
:100F00008160704721B1826842F40042826003E050
:100F1000826822F400428260704721B1826842F404
:100F20000212826003E0826822F40212826070473B
:100F3000014600208A6802F400120AB1012000E094
:100F400000207047F0B50446154600200022002618
:100F5000092911DDE068A1F10A0707EB470C072713
:100F600007FA0CF29043A1F10A0707EB470703FACF
:100F700007F21043E0600CE0206901EB410C072709
:100F800007FA0CF2904301EB410703FA07F2104312
:100F90002061A06BC0F30156EF1C06F1010CA7EB1A
:100FA0000C0707EB870C1F2707FA0CF29043EF1C86
:100FB00006F1010CA7EB0C0707EB870701FA07F214
:100FC0001043A063F0BD10B50A4600210023816BD9
:100FD00021F44011531E41EA0351816310BD08B54D
:100FE000002300930090009B0B440093009B1A6029
:100FF00008BD08B5024600200090009201F12800CB
:10100000009B184400900098006880B208BD0A4612
:1010100000214168164B19401143416070474162FD
:10102000826270470A460021416821F01F01114386
:101030004160704740B109490831096841F4000135
:10104000064A0832116007E004490831096821F4B2
:101050000001024A0832116070470000002401407C
:1010600000280140003C0140FFFEF0FFFDF7F1FFCA
:10107000FFFD3FFF0246002013680B400BB101202B
:1010800000E000207047CA430260704770B5024616
:101090000020002300240B125568CEB205EA060496
:1010A00015681D4015B10CB1012000E0002070BD95
:1010B00000220A12D34303607047000001684FF614
:1010C000FE72114001600021016041608160C160D9
:1010D0008D49884208D18C490839496841F00F018F
:1010E000894A083A51608AE087491431884208D118
:1010F00085490839496841F0F001834A083A51604E
:101100007DE081492831884208D17F490839496802
:1011100041F470617C4A083A516070E07A493C3190
:10112000884208D178490839496841F47041764AC3
:10113000083A516063E074495031884208D17249DD
:101140000839496841F470216F4A083A516056E005
:101150006D496431884208D16B490839496841F4C6
:101160007001694A083A516049E06749783188421C
:1011700008D165490839496841F07061624A083A06
:1011800051603CE06149884206D1011F096841F085
:101190000F01021F116032E05C491431884208D10E
:1011A0005A49091F096841F0F001584A121F11609D
:1011B00025E056492831884208D15449091F096859
:1011C00041F47061514A121F116018E04F493C31DF
:1011D000884208D14D49091F096841F470414B4AC2
:1011E000121F11600BE049495031884207D147492D
:1011F000091F096841F47021444A121F11607047A9
:1012000010B50022026847F6F0739A430C6A8B68A7
:1012100023430C6923434C6923438C692343CC69E2
:1012200023434C6A23438C6A23431A430260CB68EE
:1012300043600B6883604B68C36010BD0021016090
:1012400041608160C160016141618161C161016290
:1012500041628162704721B1026842F0010202607E
:1012600004E002684FF6FE731A40026070471AB13C
:1012700003680B43036002E003688B43036070471D
:10128000416070470146486880B2704701460020BF
:10129000002201F080531BB11C4B083B1A6802E08E
:1012A000194B083B1A6802EA01030BB1012000E068
:1012B0000020704700F0805119B11449091F0860DF
:1012C00002E01149083948607047014600200022B9
:1012D00001F080531BB10D4B083B1A6802E00A4B2A
:1012E000083B1A6802EA01030BB1012000E000206C
:1012F000704700F0805119B10449091F086002E0ED
:10130000014908394860704708000240080402405B
:10131000002044490860091D0860091D0860091D76
:10132000086041483F4914310860704700213D4939
:101330008279002A3AD00A46126803689A430B461B
:101340001A600A1D126803689A430B1D1A6002791D
:1013500011440A6803681A430A60324A0832126864
:1013600003689A432F4B08331A601A1D12680368EA
:101370009A432C4B0C331A604279102A0ED11A1F53
:10138000126803681A43274B08331A601A1D126843
:1013900003681A43234B0C331A600DE0214942794C
:1013A00011440A6803681A430A6005E0027911448F
:1013B0000A6803689A430A6070470021016001715E
:1013C0000C21417100218171704716491031096863
:1013D0000143144A10321160704701460020114A3F
:1013E000143212680A400AB1012000E00020704760
:1013F0000C49143108607047014600200022094B57
:101400001B6803EA0102074B14331B680B4013B13E
:101410000AB1012000E00020704702491431086041
:101420007047000000040140FFFF0F0010B50446A4
:10143000CC48844208D10121042000F02DFB00217A
:10144000042000F029FB46E0C748844208D101216E
:10145000082000F021FB0021082000F01DFB3AE0ED
:10146000C248844208D10121102000F015FB002160
:10147000102000F011FB2EE0BD48844208D101216C
:10148000202000F009FB0021202000F005FB22E0D5
:10149000B848844208D10121402000F0FDFA002123
:1014A000402000F0F9FA16E0B348844208D1012147
:1014B000802000F0F1FA0021802000F0EDFA0AE02F
:1014C000AE48844207D10121801500F0E5FA0021E1
:1014D000A01500F0E1FA10BD10B50121084600F09A
:1014E000DBFA0021012000F0D7FA10BD2DE9F04110
:1014F000024600250026002000230024002791F842
:1015000003C00CF00F0591F803C00CF0100CBCF1F7
:10151000000F03D091F802C04CEA050591F800C015
:10152000BCF1000F31D0146800202BE04FF0010C0B
:101530000CFA00F3B1F800C00CEA03069E4220D179
:1015400083004FF00F0C0CFA03F7BC4305FA03FCC1
:101550004CEA040491F803C0BCF1280F06D14FF007
:10156000010C0CFA00FCC2F814C00AE091F803C0A8
:10157000BCF1480F05D14FF0010C0CFA00FCC2F889
:1015800010C0401C0828D1D31460B1F800C0BCF1D1
:10159000FF0F34DD546800202EE000F1080C4FF0FE
:1015A000010808FA0CF3B1F800C00CEA03069E42E9
:1015B00021D183004FF00F0C0CFA03F7BC4305FA5E
:1015C00003FC4CEA040491F803C0BCF1280F05D1D8
:1015D00000F1080C08FA0CF8C2F8148091F803C066
:1015E000BCF1480F07D100F1080C4FF0010808FAD0
:1015F0000CF8C2F81080401C0828CED35460BDE817
:10160000F0814FF6FF710180022181700421C170C9
:1016100070470246002093680B400BB1012000E0A8
:10162000002070470146886880B27047024600205B
:10163000D3680B400BB1012000E000207047014649
:10164000C86880B2704701617047416170470AB154
:10165000016100E041617047C16070474FF4803222
:101660000A438261816182618269826970470246B0
:101670000020434B18684FF68073184040EA021070
:1016800008433F4B186070473E49C8617047F0B54A
:101690000A46002300240021002500F00046B6F190
:1016A000004F02D1364EF16901E0354E7168C0F34A
:1016B000034583B200F44016B6F5401F08D121F06F
:1016C00070612F4E766826F070662D4F7E6012E0B6
:1016D00000F48016B6F5801F06D1032606FA05F43D
:1016E000A14341F0706106E0460D360103FA06F6AB
:1016F000B14341F0706122B1460D360103FA06F69E
:10170000314300F00046B6F1004F02D11C4EF161AA
:1017100001E01B4E7160F0BD30B500228B071C0F3D
:101720000F2303FA04F2164B08338C1053F82430BD
:101730009343134C08348D1044F8253023468C1005
:1017400053F824308C07240F00FA04F423430C4C84
:1017500008348D1044F8253030BD0A49DC3108606A
:101760007047000000080140000C014000100140DB
:101770000014014000180140001C014000200140FD
:101780000000014000002042DF48006840F00100F6
:10179000DD49086008464068DC490840DA4948608D
:1017A00008460068DA490840D749086008460068DA
:1017B00020F4802008600846406820F4FE0048605D
:1017C0004FF41F0088607047CF49096821F48031C9
:1017D000CD4A11601146096821F480211160B0F5ED
:1017E000803F03D0B0F5802F0ED106E0C6490968CE
:1017F00041F48031C44A116007E0C349096841F4EB
:10180000A021C14A116000E000BF00BF704710B5C1
:1018100001460022002300204A11012A02D1BA4CBD
:10182000236806E0022A02D1B74C236A01E0B64CD5
:10183000636A01F01F02012494401C400CB1012096
:1018400000E0002010BD38B50020009000240025E5
:1018500000BF3120FFF7DBFF05460098401C0090D9
:101860000098B0F5A06F01D0002DF2D03120FFF725
:10187000CEFF08B1012400E00024204638BD014617
:101880000020A14A106820F0F80040EAC100106072
:101890007047A04908607047024600209A4B58687C
:1018A00020F47C1042EA01031843974B58607047BC
:1018B00098490866704701460020934A506820F016
:1018C00003000843506070478F48406800F00C00E8
:1018D0007047014600208C4A506820F0F000084311
:1018E0005060704701460020874A506820F4E0604D
:1018F00008435060704701460020834A506820F436
:10190000605040EAC1005060704729B17E4A527A67
:1019100002437D4B5A7204E07B4A527A82437A4BEF
:101920005A7270477B49D8310860704701460020E1
:10193000754A506820F440400843506070470021C9
:10194000714A20321170704A82F82010012802D0AA
:1019500004280AD104E001216B4A2032117005E00D
:101960000521694A2032117000E000BF00BF7047B6
:101970006949086070476449096A0143624A116213
:101980007047654944390860704730B5002100222E
:10199000002400235C4D6D6805F00C0121B1042981
:1019A00005D0082923D105E05C4D056022E05C4D9F
:1019B00005601FE0544D6D6805F47012524D6D685E
:1019C00005F48034022505EB92421CB9554D554370
:1019D00005600BE04C4D6D6805F400351DB1524DAE
:1019E0005543056002E04E4D5543056002E04B4D06
:1019F000056000BF00BF444D6D6805F0F0010909A6
:101A00004A4D6B5C0568DD4045603F4D6D6805F4EF
:101A1000E061090A454D6B5C4568DD4085603A4DE3
:101A20006D6805F46051C90A404D6B5C4568DD4046
:101A3000C560354D6D6805F44041890B3C4D6B5CCC
:101A4000C568B5FBF3F5056130BD29B12E4A526971
:101A500002432D4B5A6104E02B4A526982432A4BC0
:101A60005A61704729B1284A92690243264B9A610C
:101A700004E0254A92698243234B9A61704729B159
:101A8000214AD2690243204BDA6104E01E4AD2693E
:101A900082431D4BDA61704729B11B4AD268024369
:101AA000194BDA6004E0184AD2688243164BDA60B8
:101AB000704729B1144A12690243134B1A6104E0BA
:101AC000114A12698243104B1A617047124940391A
:101AD000086070470F49C86470470B49C871704768
:101AE0000948406A40F080700749486270470146E3
:101AF0000020054A92680A400AB1012000E0002057
:101B00007047014988727047001002400000FFF8DA
:101B1000FFFFF6FE000042428004424200127A00BB
:101B2000001BB70000093D00808D5B0054000020C1
:101B30006400002010B50446FE48844208D101210B
:101B4000C014FFF7A9FF0021E014FFF7A5FFC4E0D0
:101B5000B4F1804F08D101210846FFF7AAFF002108
:101B60000120FFF7A6FFB8E0F348844208D1012125
:101B70000220FFF79EFF00210220FFF79AFFACE052
:101B8000EE48844208D101210420FFF792FF002192
:101B90000420FFF78EFFA0E0E948844208D101212C
:101BA0000820FFF786FF00210820FFF782FF94E05E
:101BB000E448844208D101211020FFF77AFF002178
:101BC0001020FFF776FF88E0DF48844208D101212A
:101BD0002020FFF76EFF00212020FFF76AFF7CE046
:101BE000DA48844208D101214014FFF755FF002153
:101BF0006014FFF751FF70E0D548844209D10121FC
:101C0000C804FFF749FF00214FF40020FFF744FF0D
:101C100063E0D048844209D101210805FFF73CFF69
:101C200000214FF48010FFF737FF56E0CA48844286
:101C300009D101214805FFF72FFF00214FF40010C3
:101C4000FFF72AFF49E0C548844208D1012140201E
:101C5000FFF72FFF00214020FFF72BFF3DE0C0489A
:101C6000844208D101218020FFF723FF002180203A
:101C7000FFF71FFF31E0BB48844208D101218015E6
:101C8000FFF717FF0021A015FFF713FF25E0B64867
:101C9000844209D101210804FFF7FEFE00214FF420
:101CA0008030FFF7F9FE18E0B048844209D10121E5
:101CB0004804FFF7F1FE00214FF40030FFF7ECFE7F
:101CC0000BE0AB48844208D101218804FFF7E4FE11
:101CD00000214FF48020FFF7DFFE10BD00220288B4
:101CE000944B98420ED0994B98420BD0B0F1804F54
:101CF00008D0914B984205D0904B984202D0904B1F
:101D0000984204D14FF68F731A404B881A438D4B7B
:101D1000984207D08C4B984204D04FF6FF431A40AC
:101D2000CB881A4302808B8883850B880385814B7F
:101D300098420BD0854B984208D08B4B984205D0E7
:101D40008A4B984202D08A4B984201D10B7A038683
:101D500001238382704770B5002400220023058C84
:101D60004FF6FE7635400584028C8388048B4FF64F
:101D70008F752C40B51E2C400D882C43751E2A40B3
:101D80000D892A434D882A436A4DA8420BD06F4DD6
:101D9000A84208D0744DA84205D0744DA84202D084
:101DA000734DA84213D14FF6F7752A404D892A4347
:101DB0004FF6FB752A408D882A434FF6FF652B406E
:101DC0004FF6FF552B408D892B43CD892B438380C4
:101DD0000483CD888586028470BD70B500240022FE
:101DE0000023058C4FF6EF7635400584028C8388FE
:101DF000048B48F6FF752C404FF6FF452C400D88AC
:101E00004FF6FF7606EA05252C434FF6DF752A408C
:101E10000D8906EA05152A434D8806EA05152A4369
:101E2000444DA84202D0494DA8421DD14FF67F75BE
:101E30002A404D894FF6FF7606EA05152A434FF6EC
:101E4000BF752A408D8806EA05152A434FF6FF35EF
:101E50002B404FF2FF752B408D8906EA85052B43F9
:101E6000CD8906EA85052B4383800483CD880587C9
:101E7000028470BD70B5002400220023058C4FF64B
:101E8000FF6635400584028C8388848B4FF68F75FE
:101E90002C404FF6FC752C400D882C434FF6FF5517
:101EA0002A400D894FF6FF7606EA05252A434D881C
:101EB00006EA05252A431F4DA84202D0234DA84219
:101EC0001DD14FF2FF752A404D894FF6FF7606EA85
:101ED00005252A434FF6FF352A408D8806EA052559
:101EE0002A434EF6FF752B404DF6FF752B408D892A
:101EF00006EA05152B43CD8906EA05152B43838099
:101F00008483CD888587028470BD70B5002200234C
:101F10000024058C4EF6FF7635400584038C8488BA
:101F2000828B48F6FF752A404FF6FF452A400D8800
:101F300020E00000002C01400004004000080040A8
:101F4000000C00400010004000140040003401402C
:101F5000004C014000500140005401400018004076
:101F6000001C0040002000400040014000440140AF
:101F7000004801404FF6FF7606EA05252A434DF654
:101F8000FF752B400D8906EA05352B434D8806EA7F
:101F900005352B43FA4DA84202D0FA4DA84208D18C
:101FA0004BF6FF752C408D894FF6FF7606EA8515B6
:101FB0002C4384808283CD88A0F84050038470BD78
:101FC000828B4FF2FF331A408283828B4FF6FF736E
:101FD00003EA01231A4382837047F0B50C46154685
:101FE000002200210026078C4EF6FF7C07EA0C0732
:101FF0000784828B018C4FF6FF7707EA043640F6A0
:10200000FF473A404FF6FF7707EA05273A434FF676
:10201000FF7707EA03373A43D94FB8420ED0D94F7A
:10202000B8420BD0B0F1804F08D0D74FB84205D09E
:10203000D64FB84202D0D64FB84206D14DF6FF7700
:10204000394046F48057394305E047F6FF57394099
:1020500044F48057394382830184F0BD828B4FF66C
:10206000F3731A408283828B0A4382837047F0B5F0
:102070000C461546002200210026078C4FF6FF6C07
:1020800007EA0C070784828B018C4FF6FF7707EA7B
:1020900004264FF60C773A404FF6FF7707EA03170E
:1020A0002F433A43B64FB8420ED0B64FB8420BD08A
:1020B000B0F1804F08D0B44FB84205D0B34FB8420A
:1020C00002D0B34FB84206D14FF6FF57394046F41D
:1020D0008077394305E04FF2FF57394044F4807769
:1020E000394382830184F0BD028B4FF2FF331A40E3
:1020F0000283028B4FF6FF7303EA01231A43028324
:102100007047F0B50C461546002200210026078CCA
:102110004FF6EF7C07EA0C070784028B018C4FF621
:10212000FF7707EA041640F6FF473A404FF6FF777D
:1021300007EA03373A434FF6FF7707EA05273A43A2
:102140008F4FB8420ED08F4FB8420BD0B0F1804FB6
:1021500008D08D4FB84205D08C4FB84202D08C4F7A
:10216000B84206D14FF6DF77394046F010073943C1
:1021700005E04FF65F77394044F01007394302839A
:102180000184F0BD028B4FF6F3731A400283028B79
:102190000A4302837047F0B50C4615460022002121
:1021A000068C4FF6FE773E400684028B018C4FF67C
:1021B0000C7632407E1C06EA03162E433243704EE4
:1021C000B0420ED06F4EB0420BD0B0F1804F08D06D
:1021D0006D4EB04205D06D4EB04202D06C4EB04252
:1021E00006D14FF6FD76314044F00106314305E05B
:1021F0004FF6F576314044F0010631430283018405
:10220000F0BD70B505460C465D4885420ED05D4870
:1022100085420BD0B5F1804F08D05B48854205D090
:102220005A48854202D05A48854200D100E000BF9A
:10223000208850B92389A28861882846FFF7ABFF20
:10224000E1882846FFF79EFF25E0208804280AD170
:102250002389A28861882846FFF753FFE188284632
:10226000FFF742FF17E0208808280AD12389A288B7
:1022700061882846FFF7FBFEE1882846FFF7EEFE5F
:1022800009E02389A28861882846FFF7A6FEE18835
:102290002846FFF795FE70BD2DE9F04105460C4636
:1022A00000260127608808B9022600E00026A088E1
:1022B000012801D1022700E001272088A0B9238945
:1022C000A28861882846FFF766FFE1882846FFF765
:1022D00059FF23893A4631462846FFF712FFE18825
:1022E0002846FFF701FF13E02389A288618828466A
:1022F000FFF707FFE1882846FFF7F6FE23893A46F5
:1023000031462846FFF747FFE1882846FFF73AFFA6
:10231000BDE8F0810A884B881A438B881A43CB8822
:102320001A430B891A434B891A438B891A43A0F825
:10233000442070474FF6FF71818000210180C180E9
:102340004180017270470021018041808180C180FD
:10235000018141818181C1817047002101804180DB
:10236000012181800021C18001817047002101800D
:1023700041808180C180018141818181704700005D
:10238000002C0140003401400004004000080040DF
:10239000000C004021B1028842F00102028004E0FA
:1023A00002884FF6FE731A400280704731B1B0F8D0
:1023B000442042F40042A0F8442005E0B0F8442054
:1023C000C2F30E02A0F8442070471AB183890B4370
:1023D000838102E083898B438381704781827047C8
:1023E00041EA0203A0F8483070471AB183890B43D1
:1023F000838102E083898B438381704701894FF693
:10240000F8721140018170470A46002101894FF698
:102410008F73194011430181704730B504460D4652
:1024200029462046FFF7F0FF208940F00700208171
:1024300030BD2DE9F04104460D4616461F46602D7D
:1024400006D13B46012231462046FFF75AFE05E001
:102450003B46012231462046FFF79DFE2946204695
:10246000FFF7D2FF208940F007002081BDE8F0810E
:1024700030B50C4600210189C9B24FF6FF7505EA57
:102480000325154325432943018130BD2DE9F04142
:1024900005460E4617469846002443463A463146BE
:1024A0002846FFF7E5FF2C894FF6F870044044F00A
:1024B00007044FF68F70044044F070042C81BDE88F
:1024C000F081F0B504460D4616461F463B4632469F
:1024D00029462046FFF7CCFF208940F48040208128
:1024E000F0BD0185828270470A46002101884FF6BF
:1024F0008F731940114301807047F0B50C461546A3
:102500001E460021002200230189028B038C4FF616
:10251000F877394021434FF6FC473A4040F2011723
:102520003A434FF6DD773B404FF6FF7707EA061751
:102530002F433B43018102830384F0BD0A460021FF
:10254000018B4FF68F7319401143018370470A4680
:102550000021018B48F6FF7319404FF6FF7303EA21
:1025600002231943018370470A460021818B4FF6ED
:102570008F7319401143818370470A460021818B74
:1025800048F6FF7319404FF6FF7303EA022319431D
:102590008183704721B1028842F08002028004E00A
:1025A00002884FF67F731A400280704721B18288FB
:1025B00042F00402828004E082884FF6FB731A40E6
:1025C0008280704721B1828842F00802828004E054
:1025D00082884FF6F7731A408280704721B1828853
:1025E00042F00102828004E082884FF6FE731A40B6
:1025F000828070470A460021018B4FF6F77319401D
:102600001143018370470A460021018B4FF2FF738B
:1026100019404FF6FF7303EA022319430183704701
:102620000A460021818B4FF6F773194011438183CD
:1026300070470A460021818B4FF2FF7319404FF615
:10264000FF7303EA02231943818370470A4600217E
:10265000018B4FF6FB7319401143018370470A4603
:102660000021018B4FF6FF3319404FF6FF7303EA49
:1026700002231943018370470A460021818B4FF6DC
:10268000FB7319401143818370470A460021818BF7
:102690004FF6FF3319404FF6FF7303EA0223194345
:1026A000818370470A460021018B4FF67F731940E2
:1026B0001143018370470A460021018BC1F30E01CB
:1026C0004FF6FF7303EA02231943018370470A465A
:1026D0000021818B4FF67F7319401143818370472E
:1026E0000A460021818BC1F30E014FF6FF7303EA06
:1026F00002231943818370470A460021018C4FF65B
:10270000FD7319401143018470470A460021018C72
:102710004FF6F77319401143018470470A460021B0
:10272000018C4FF6DF7319404FF6FF7303EA021373
:102730001943018470470A460021018C4FF67F73CC
:1027400019404FF6FF7303EA0213194301847047DF
:102750000A460021018C4FF6FF5319404FF6FF73D4
:1027600003EA02231943018470470A460021018CC1
:102770004FF2FF7319404FF6FF7303EA0223194328
:10278000018470470A460021018C4DF6FF73194001
:102790004FF6FF7303EA023319430184704730B5E3
:1027A000002301248C40A3B2048C9C430484048C39
:1027B00002FA01F5ADB22C43048430BD30B50023DC
:1027C00004248C40A3B2048C9C430484048C02FA3D
:1027D00001F5ADB22C43048430BD70B50346002032
:1027E00000241846183001258D40ACB21D8CA5433D
:1027F0001D8409B1082909D100EB6100056825F0A5
:10280000700505600568154305600EE00D1FC5F3F2
:102810004E052844056825F4E045056005684FF637
:10282000FF7606EA02263543056070BD21B10288B5
:1028300042F00202028004E002884FF6FD731A4063
:102840000280704721B1028842F00402028004E055
:1028500002884FF6FB731A400280704721B18288CC
:1028600042F08002828004E082884FF67F731A4033
:102870008280704702884FF6F7731A400280028800
:102880000A430280704782884FF68F731A40828015
:1028900082880A438280704702894FF6F8731A4093
:1028A000028102890A430281704702894FF67F73D1
:1028B0001A40028102890A4302817047818470476D
:1028C000818570478186704701877047818770478F
:1028D000A0F84010704702884FF6FF431A4002806C
:1028E00002880A43028070470146888E704701467D
:1028F000088F70470146888F70470146B1F8400045
:1029000070470146888C70470146088D7047024623
:102910000020138A0B400BB1012000E0002070471B
:10292000CA430282704730B50246002000230024CB
:10293000158A05EA0103958905EA010413B10CB172
:10294000012000E0002030BDCA4302827047000031
:1029500010B50446FB48844209D101218803FFF7E2
:102960009BF800214FF48040FFF796F832E0F648DC
:10297000844209D101214804FFF79BF800214FF45C
:102980000030FFF796F825E0F048844209D1012194
:102990008804FFF78EF800214FF48020FFF789F8B4
:1029A00018E0EB48844209D10121C804FFF781F8FF
:1029B00000214FF40020FFF77CF80BE0E54884424B
:1029C00008D101210805FFF774F800214FF48010A9
:1029D000FFF76FF810BD2DE9F04786B005460E46AB
:1029E0000024A24600BFA1460027B08900B100BF65
:1029F0002F462C8A4CF6FF700440F08804432C824A
:102A0000AC894EF6F3100440B088318908437189CF
:102A100008430443AC81AC8A4FF6FF400440B089C0
:102A20000443AC8201A8FEF7B0FFC648874202D13A
:102A3000DDF810A001E0DDF80CA0A88900F400404A
:102A400040B10AEBCA0000EB0A1031684900B0FB44
:102A5000F1F807E00AEBCA0000EB0A1031688900C0
:102A6000B0FBF1F86420B8FBF0F004012009642108
:102A700001FB1089A88900F4004040B1322000EB2E
:102A8000C900B0FBF1F000F00700044308E0322079
:102A900000EB09106421B0FBF1F000F00F000443DB
:102AA0002C8106B0BDE8F0874FF41651016000217B
:102AB0008180C18001810C21418100218181704789
:102AC00010B502460020108A4FF2FF0318400B8811
:102AD0004C8823438C882343CC882343184310829B
:102AE00010BD0021018041808180C180704721B1EB
:102AF000828942F40052828104E082894DF6FF739C
:102B00001A4082817047F0B5034600240026002554
:102B1000002040F66A17B94200D100BF1846C1F341
:102B2000421401F01F06012707FA06F5012C01D116
:102B30000C3004E0022C01D1103000E014301AB146
:102B400007682F43076002E00768AF430760F0BDE6
:102B50001AB1838A0B43838202E0838A8B43838288
:102B60007047028A4FF6F0731A400282028A0A43C3
:102B70000282704782894FF2FF731A4082818289F4
:102B80000A438281704721B1828942F00202828128
:102B900004E082894FF6FD731A4082817047028AF1
:102BA0004FF6DF731A400282028A0A43028270479C
:102BB00021B1028A42F48042028204E0028A4BF68A
:102BC000FF731A4002827047C1F308028280704787
:102BD00001468888C0F308007047818941F00101EF
:102BE00081817047028BD2B20283028B42EA0122BA
:102BF00002837047028B02F47F420283028B0A43F6
:102C00000283704721B1828A42F02002828204E06E
:102C1000828A4FF6DF731A408282704721B1828A1E
:102C200042F01002828204E0828A4FF6EF731A406B
:102C30008282704721B1828A42F00802828204E0D7
:102C4000828A4FF6F7731A408282704721B18289D7
:102C500042F40042828103E08289C2F30E02828143
:102C6000704721B1828A42F40062828204E0828A43
:102C70004FF2FF731A4082827047828A4FF6FB73CD
:102C80001A408282828A0A438282704721B1828AF4
:102C900042F00202828204E0828A4FF6FD731A40FB
:102CA0008282704702460020B1F5007F00D100BF4C
:102CB00013880B400BB1012000E00020704701F4A5
:102CC0000072B2F5007F00D100BFCA430280704796
:102CD00070B50246002400230025002040F66A1645
:102CE000B14200D100BFC1F3421501F01F0301261C
:102CF00006FA03F3012D02D19689334006E0022D36
:102D000002D1168A334001E0968A33400C12012624
:102D100006FA04F41688344013B10CB1012000E027
:102D2000002070BD10B50022002340F66A14A142B5
:102D300000D100BF0A1201249440A3B2DC430480F6
:102D400010BD000000380140004400400048004031
:102D5000004C00400050004010B56FF00400FDF73B
:102D600066FF2E4800682E49B0FBF1F02D4908702F
:102D70000846007800EB4001C1EBC0104FF6FF7130
:102D800001EAC0002849088010BD0146254A127892
:102D90004A434FF0E0235A6100229A611A461269B1
:102DA00042F001021A6100BF4FF0E022106900F00A
:102DB00001021AB100F48032002AF5D04FF0E0226F
:102DC000126922F001024FF0E0231A6100229A6199
:102DD00070470146144A12884A434FF0E0235A6173
:102DE00000229A611A46126942F001021A6100BF7C
:102DF0004FF0E022106900F001021AB100F48032B5
:102E0000002AF5D04FF0E022126922F001024FF0C3
:102E1000E0231A6100229A61704700004000002000
:102E200000127A00680000206A00002008B5012125
:102E30000420FEF717FEFF20ADF8000010208DF8EB
:102E4000030003208DF8020069461248FEF74EFB8E
:102E500001211048FEF7F7FB02210E48FEF7F3FBB5
:102E600004210C48FEF7EFFB08210A48FEF7EBFBB4
:102E700010210848FEF7E7FB20210648FEF7E3FB98
:102E800040210448FEF7DFFB80210248FEF7DBFB10
:102E900008BD00000008014008B501211020FEF720
:102EA000E1FDF020ADF8000048208DF8030003207C
:102EB0008DF8020069462148FEF718FB08BD10B5E1
:102EC00010211E48FEF7A5FB48B90A20FFF781FF35
:102ED00010211A48FEF79DFB08B9012010BD2021E2
:102EE0001648FEF796FB48B90A20FFF772FF20212B
:102EF0001248FEF78EFB08B90220EFE740210F4889
:102F0000FEF787FB48B90A20FFF763FF40210B4813
:102F1000FEF77FFB08B90320E0E780210748FEF7B2
:102F200078FB48B90A20FFF754FF80210348FEF7D9
:102F300070FB08B90420D1E70020CFE70010014062
:102F40001FB501211020FEF78DFD01210846FEF777
:102F500089FD1020ADF80C0048208DF80F000320EB
:102F60008DF80E0004210220FEF7D6FB03A91848B5
:102F7000FEF7BCFA1020019001208DF80A00002015
:102F80008DF808000C208DF8090001A8FEF7CEF995
:102F90004FF4E060FDF7FCFD0A208DF800000020F2
:102FA0008DF801008DF8020001208DF803006846BD
:102FB000FDF7F3FD1FBD10B51020FEF71DFA10B18F
:102FC0000120044908701020FEF712FA10BD00001D
:102FD000001001406C00002008B501212020FEF700
:102FE00041FD4FF48040ADF8000010208DF8030043
:102FF00003208DF8020069460448FEF777FA4FF483
:1030000080410248FEF721FB08BD0000001401408A
:1030100000B587B001210420FEF724FD01218803BB
:10302000FEF720FD4FF40070ADF8180018208DF861
:103030001B0003208DF81A0006A93E48FEF756FA39
:103040004FF48060ADF8180004208DF81B000320B9
:103050008DF81A0006A93748FEF748FA4FF4E13018
:1030600002900020ADF80C00ADF80E00ADF8100095
:10307000ADF814000C20ADF8120002A92E48FFF79D
:10308000AAFC012240F225512B48FFF73CFD01210B
:103090002948FFF72CFD25208DF8040000208DF82D
:1030A000050001208DF806008DF8070001A8FDF746
:1030B00074FD07B000BD10B540F225511E48FFF762
:1030C00007FE012820D11C48FFF782FD1B491C4A3E
:1030D0001278885408461A490978405C232805D09C
:1030E00017480078401C164908700DE0002013496D
:1030F000134A1278885413A001F008FC01201249E9
:10310000087000200E49087040F225510A48FFF768
:1031100009FE10BD70B504460D46A1B20648FFF782
:1031200053FD00BF40210448FFF7BCFD0028F9D043
:10313000204670BD00080140003801408C1100207D
:103140006D000020257300006E0000201FB50121D6
:103150001020FEF794FC4720ADF8040040F2E73061
:10316000ADF808000020ADF80600ADF80A0001A98E
:103170002348FEF7B3FD012211462148FFF725F948
:1031800001211F48FFF706F936208DF800000020C6
:103190008DF8010002208DF8020001208DF8030057
:1031A0006846FDF7FAFC1FBD10B501211448FFF772
:1031B000BAFB20B313480088401C1249088012480B
:1031C0000088401C104908800E480088B0F5FA7F3E
:1031D00005DB01200D49087000200A4908800A48D3
:1031E000008841F28831884205DB012008490870D7
:1031F00000200549088001210148FFF7A5FB10BD0B
:1032000000100040700000207400002072000020B8
:103210007600002000B589B001210920FEF722FCCC
:1032200001210220FEF72BFC01213F48FEF72FFA77
:103230002020ADF8200018208DF8230003208DF801
:10324000220008A93948FEF751F941F61F40ADF8B0
:1032500014006320ADF818000020ADF81600ADF89A
:103260001A0005A93248FEF739FD6020ADF80400C8
:103270000120ADF806002F480078ADF80A000220C2
:10328000ADF80C0001A92A48FEF7A7FD012211465E
:103290002748FFF79AF81D208DF8000000208DF8D0
:1032A000010003208DF8020001208DF8030068461C
:1032B000FDF773FC08211E48FFF7A5F901211C4802
:1032C000FFF768F901211A48FFF764F809B000BD5B
:1032D00010B501211648FFF726FB20B30121144841
:1032E000FFF732FB13480078134909780844114965
:1032F000087008460078642806DBFF200E49087035
:1033000064200C49087009E00A480078002805DCB0
:103310000120094908700020064908700548017815
:103320000348FFF7D1FA10BD00081A00000C014055
:1033300000040040780000207700002000B591B024
:1033400001214FF40470FEF78DFB01210846FEF7C2
:103350007CFB0320ADF8400000208DF8430010A94D
:103360003648FEF7C3F83648FDF7A8FE354800900A
:103370003548019000200290022003900020049024
:103380008020059040000690800007902020089043
:103390000002099000200A9069462948FDF730FF95
:1033A00001212748FDF757FF00200B9001208DF8E1
:1033B00030008DF831004FF460200D9000200E9009
:1033C00002208DF83C000BA91E484C38FDF775FC17
:1033D000072301220B211B484C38FDF706FD07236C
:1033E00002220C2117484C38FDF7FFFC012115483B
:1033F0004C38FDF799FC012112484C38FDF789FC47
:1034000010484C38FDF7A7FC00BF0E484C38FDF7BC
:10341000A7FC0028F9D10B484C38FDF7ABFC00BFE6
:1034200008484C38FDF7ABFC0028F9D101210548CC
:103430004C38FDF7AEFC11B000BD0000001001409B
:10344000080002404C2401407A00002070B5044678
:1034500025464FF6FF7000EA05258748FEF7EFF88E
:10346000C0B2054329468448FEF7F6F870BD10B592
:1034700000BFFF20FFF7EAFF002080490860804975
:10348000C1F88C0101207D49091D08607C49C1F803
:1034900084017948FEF7C6F80412002077490860D5
:1034A00004F080000028E4D110BD10B50446FFF7F9
:1034B000DEFF0020714908607149C1F88C016F4935
:1034C000091D08602046FFF7C1FF01206B49086015
:1034D0000020086010BD08B501214420FEF7C2FAA3
:1034E0000E20ADF8000010208DF8030003208DF8A9
:1034F000020069466348FDF7F9FF4FF68070ADF8AA
:10350000000014208DF8030069465B48FDF7EEFFCC
:10351000E0215C48FEF799F84FF680715648FEF7B7
:1035200092F83820FFF7C1FF0120FFF7BEFF062009
:10353000FFF7BBFF0C20FFF7B8FF08BD10B504462E
:10354000FFF795FF00204D49086001204C49C1F864
:103550008C0100204949091D08602046FFF776FFCD
:103560000120464908600020086010BD10B5012008
:10357000FFF79BFF10BD2DE9F04705460E461746A5
:103580009846022D01D1C02500E08025102E00DDD7
:10359000102645EA0600FFF788FF002406E017F82A
:1035A00004904846FFF7CAFF601CC4B24445F6DBEE
:1035B000BDE8F0872DE9F84F82468B4617469946BD
:1035C0004FF00108012500240BE005EB85004006C3
:1035D000050EAF4203DB08F1010000F0FF08601C9C
:1035E000C4B2022CF1DB0A2097FBF0F100FB117052
:1035F0003030C0B28DF80200012502241CE005EB3A
:1036000085004006050E97FBF5F0C6B20A2E05DBD5
:103610000A2096FBF0F100FB1160C6B236B106F14C
:103620003000C1B2601E0DF8001003E03021601EB2
:103630000DF80010601EC4B2002CE0DCB8F1030FDE
:1036400012DAC8F10300C5B200240BE0B9F1000F93
:1036500003D030200DF8040002E020200DF8040013
:10366000601CC4B2AC42F1DB03236A4659465046A3
:10367000FFF781FFBDE8F88F001801408401214267
:103680000000214200080140F84900E0521C11F8F6
:10369000013B002BFAD150087047002001E0411C8B
:1036A000C8B20A28FBDB704710B50020F04908605B
:1036B0000120F049C1F89801FFF7EFFF0120EC4924
:1036C000086010BD08B501210820FEF7CBF94020A5
:1036D000ADF8000003208DF8020014208DF80300DF
:1036E0006946E548FDF702FF8020ADF80000694615
:1036F000E148FDF7FBFEFFF7D7FF08BD10B501203D
:10370000DB490860DB49C1F89801FFF7C6FF0020DC
:10371000D7490860FFF7C1FF0020D649C1F89801DA
:10372000FFF7BBFF10BD10B50120D1490860FFF7BE
:10373000B4FF0120CF49C1F89801FFF7AEFF802107
:10374000CD48FDF766FF08B1012400E00024002009
:10375000C749091F0860FFF7A0FF204610BD70B5DC
:103760000446002520E004F0800018B10120C04983
:10377000086002E00020BE490860FFF78EFF0120CC
:10378000BB49091F0860FFF788FF0020B949C1F84D
:103790009801072D02D10120B54908606006040E8A
:1037A000FFF77BFF681CC5B2082DDCDB70BD10B5D0
:1037B0000446FFF7A3FF7820FFF7D1FFFFF7B3FF21
:1037C0000020FFF7CCFFFFF7AEFF2046FFF7C7FF53
:1037D000FFF7A9FFFFF768FF10BD10B50446FFF71C
:1037E0008DFF7820FFF7BBFFFFF79DFF4020FFF71D
:1037F000B6FFFFF798FF2046FFF7B1FFFFF793FFF3
:10380000FFF752FF10BD70B50646002415E004F125
:10381000B001C8B2FFF7CBFF0020FFF7C8FF1020B0
:10382000FFF7C5FF002504E03046FFF7D6FF681C10
:10383000C5B2822DF8DB601CC4B2082CE7DB70BD7A
:1038400070B504460D4605F1B001C8B2FFF7AFFFF1
:10385000A11CC1F3031141F01000FFF7A8FFA11C48
:1038600001F00F0141F00100FFF7A1FF70BD10B59D
:103870008D20FFF79CFF1420FFF799FFAF20FFF783
:1038800096FF10BD10B58D20FFF791FF1020FFF7B8
:103890008EFFAE20FFF78BFF10BD10B50020FFF7A5
:1038A000B2FF10BD2DE9F04107460E4690460025B7
:1038B0000024A8F12000C5B2812F02DD0027B01C32
:1038C000C6B231463846FFF7BBFF002407E004EBE1
:1038D00005116A4A505CFFF780FF601CC4B2082CD7
:1038E000F5DB701CC1B23846FFF7AAFF002408E0E0
:1038F00004EB05110831614A505CFFF76EFF601C54
:10390000C4B2082CF4DBBDE8F08110B502460120FA
:1039100000E050430B1EA1F10104E1B2F9D110BD4A
:103920002DE9F0470546894690461E46DDF820A061
:1039300000242FE0301B401EC1B20A20FFF7E5FF34
:10394000B8FBF0F00A21B0FBF1F201FB1207A7B9B6
:10395000BAF1000F08D0082101FB0451C8B230228F
:103960004946FFF79FFF07E0082101FB0451C8B259
:1039700020224946FFF796FF0AE007F13001CAB25C
:10398000082101FB0451C8B24946FFF78BFF00BF75
:10399000601CC4B2B442CDDBBDE8F0872DE9F0472E
:1039A0000746884616460025FFF76EFE3449086034
:1039B00091E03078A02843DD00253AE0702F04DD47
:1039C000002708F1020000F0FF083078274911F8BD
:1039D000151088422CD17078012101EB4501234A52
:1039E000515C884224D141463846FFF729FF002424
:1039F00006E004EB4511234A505CFFF7EEFE641C21
:103A0000102CF6D308F10100C1B23846FFF718FFB9
:103A1000002407E004EB451110311A4A505CFFF70F
:103A2000DCFE641C102CF5D307F11000C7B204E0D3
:103A30006D1C134800688542C0D300BFB61C4AE025
:103A40007A2F04DD002708F1020000F0FF0831782A
:103A50000D4800F0B9FB8146B9F1000F3AD041465C
:103A60003846FFF7EDFE00241AE000007010002039
:103A70009C81214200802142000C014080000020F6
:103A800074110020700600201111002099F8001018
:103A9000203904EB01115B4A505CFFF79EFE641C69
:103AA000082CF3D308F10100C1B23846FFF7C8FE75
:103AB00000240AE099F80010203904EB01110831C4
:103AC000504A505CFFF789FE641C082CF2D307F1C2
:103AD0000800C7B2761C307800287FF46AAFBDE8D2
:103AE000F08710B5FFF7EEFDAE20FFF760FE002077
:103AF000FFF75DFE1020FFF75AFE4020FFF757FE4C
:103B0000B020FFF754FE8120FFF751FEFF20FFF7A2
:103B10004EFEA120FFF74BFEA620FFF748FEA8208F
:103B2000FFF745FE3F20FFF742FEC820FFF73FFEAC
:103B3000D320FFF73CFE0020FFF739FED520FFF72A
:103B400036FE8020FFF733FED820FFF730FE052039
:103B5000FFF72DFED920FFF72AFEF120FFF727FE01
:103B6000DA20FFF724FE1220FFF721FEDB20FFF70B
:103B70001EFE3020FFF71BFE8D20FFF718FE1420DD
:103B8000FFF715FEAF20FFF712FE10BD2DE9F05F25
:103B900006460F4690461C46DDF828A04FF0000B65
:103BA000E11704EB5171C910A4EBC10131B92046F2
:103BB000E11704EB5171C1F3C70506E02046E11798
:103BC00004EB5171C910491CCDB23D4615E02946A0
:103BD0003046FFF735FEB1460BE059464A1C1FFA46
:103BE00082FB1AF80100FFF7F8FD09F1010000F06F
:103BF000FF09C145F1DB681CC5B2A542E7DBBDE8A2
:103C0000F09F00008000002008B501210420FDF78E
:103C100029FF1F20ADF8000010208DF803000320BD
:103C20008DF8020069462F48FDF760FC1F212D48E2
:103C3000FDF70BFD08BD30B501460A46002012E035
:103C400002F0010333B10123274D05EB8004C4F8D2
:103C5000803105E00023244D05EB8004C4F8803159
:103C60005210431CD8B20428EADB30BD70B50646BA
:103C700000240025012E02D0022E2CD115E00025B3
:103C800010E000240AE01949095D01F01F00FFF768
:103C9000D2FF0220FFF79DF8601CC4B2082CF2DBB3
:103CA000681CC5B20C2DECDB19E0002510E00024E7
:103CB0000AE00F49095D01F01F00FFF7BCFF022079
:103CC000FFF787F8601CC4B2082CF2DB681CC5B291
:103CD0000C2DECDB03E00020FFF7ADFF00BF00BFC1
:103CE00070BD000000080140000021427811002052
:103CF0008011002008B501210820FDF7B3FE4FF424
:103D00000060ADF8000048208DF8030003208DF816
:103D1000020069469448FDF7E9FB08BD08B501219A
:103D20000820FDF79FFE4FF40060ADF80000102062
:103D30008DF8030003208DF8020069468A48FDF7DC
:103D4000D5FB08BD10B5FFF7E9FF002087490860E3
:103D500040F2EE20FFF719F801208549C1F8AC01C7
:103D60000F20FFF712F810BD10B50024FFF7C2FFB7
:103D700004E0601CC4B20120FFF707F87B488038DC
:103D8000006808B1C82CF4DBC82C01DB012010BD91
:103D9000002404E0601CC4B20120FEF7F6FF734863
:103DA0008038006808B9F02CF4DBF02C01DB01202E
:103DB000EDE70020EBE710B5FFF7B0FF00206B49FF
:103DC00008600220FEF7E1FF01206949C1F8AC015B
:103DD000FFF790FF0C20FEF7D8FF6448803800689A
:103DE00008B1012400E000243220FEF7CEFF204677
:103DF00010BD70B50026012508E0FFF7DCFF044682
:103E0000E00140EA6600C6B2681CC5B2082DF4DDC8
:103E1000304670BD70B50446FFF780FF012520E0F5
:103E200004F0010664106EB10020504908600220C1
:103E3000FEF7ABFF01204E49C1F8AC013C20FEF774
:103E4000A4FF0CE00020494908603C20FEF79DFFDC
:103E500001204749C1F8AC010220FEF796FF681C1B
:103E6000C5B2082DDCDD70BD10B5FFF76BFFFFF7A5
:103E70007BFFCC20FFF7CEFF4420FFF7CBFF10BD28
:103E800008B501210820FDF7EDFD4FF40060ADF805
:103E9000000010208DF8030003208DF80200694611
:103EA0003148FDF723FB4FF400612F48FDF7CBFBB2
:103EB000FFF748FFFFF758FF08BD2DE9FF5FFFF749
:103EC000D3FFFFF73FFFFFF74FFFCC20FFF7A2FF25
:103ED000BE20FFF79FFFFFF78CFF8146FFF789FFAA
:103EE0000446072C07DDE043C4B26FEA090000F086
:103EF000FF09002600E001262546280205B205EB51
:103F0000090005B2AEB1284600F049FA019000F070
:103F100091FA0022174BCDE9020100F05FF9074644
:103F20000022154B00F05AF9824600F064FA05B2FF
:103F300015E0681CC04300F032FA019000F07AFAF4
:103F4000074600220B4B00F049F9824600220A4B3B
:103F500000F044F9CDE9020100F04DFA05B228461F
:103F600004B0BDE8F09F0000000C0140AC8121428C
:103F7000008021420000B03F0000244008B501212C
:103F80000420FDF76FFD4FF48070ADF800001020A5
:103F90008DF8030003208DF8020069465448FDF7B0
:103FA000A5FA4FF480715248FDF74DFB08BD08B5E6
:103FB0004FF48070ADF8000048208DF8030069468A
:103FC0004B48FDF793FA08BD08B54FF48070ADF883
:103FD000000010208DF8030003208DF802006946D0
:103FE0004348FDF783FA08BD70B50025002427E09B
:103FF00000BF4FF480713E48FDF70BFB0028F8D05E
:104000002820FEF7C2FE4FF480713948FDF701FB0E
:1040100001280ED100BF4FF480713548FDF7F9FA41
:104020000128F8D0C4F1070101208840C0B205433F
:1040300004E0C4F10701012088408543601CC4B23C
:10404000082CD5DB284670BD10B50446FFF7BCFF31
:104050004FF480712648FDF7F8FA1220FEF7B9FEFA
:104060004FF480712248FDF7EEFA1E20FEF78DFE18
:10407000FFF79DFF4FF480711D48FDF7CAFA88BB1A
:1040800000BF4FF480711A48FDF7C3FA0028F8D03A
:1040900000BF4FF480711648FDF7BBFA0128F8D035
:1040A000FFF7A2FF2070FFF79FFF6070FFF79CFFF4
:1040B000A070FFF799FFE070FFF796FF2071FFF700
:1040C00083FF4FF480710A48FDF7BDFA20786178CC
:1040D0000844A1780844E17808442179884202D153
:1040E000012010BD01E00020FBE70020F9E70000FF
:1040F0000008014000B589B001210846FDF7BFFC6A
:1041000001210420FDF7AEFC0120ADF820001820AD
:104110008DF8230003208DF8220008A92048FDF720
:10412000E5F944F61F60ADF818004720ADF814001B
:104130000020ADF81A00ADF8160005A94FF0804038
:10414000FDF7CCFD6020ADF804000120ADF80600BD
:104150000020ADF80C0040F2DC50ADF80A0001A9D7
:104160004FF08040FDF7F7FD01218807FEF712F9B7
:1041700001218807FEF71AF909B000BD70B50446A1
:104180004FF47A706043B42190FBF1F000F57A703F
:1041900085B229464FF08040FEF794FB70BD0000C9
:1041A0000008014030B505462A460B4612F8010BBF
:1041B00013F8014B08B1A042F8D01CB1002802D07E
:1041C0006D1CF1E7284630BDCAB2401E10F8011F31
:1041D0008A4202D00029F9D1002070472DE9FE4F14
:1041E00081EA030404F0004421F0004100944FF000
:1041F000000B23F0004350EA01045ED052EA0304AE
:104200005BD0C3F30A54C1F30A552C44A4F2F3342F
:104210000194A0FB0254C1F3130141F48011C3F3D4
:10422000130343F4801301FB024400FB034E840A92
:10423000970A44EA815447EA8357A4FB076802952A
:104240008D0A05FB07854FEA932C04FB0C542705C8
:10425000029D4FEA065847EA1637B5EB08056EEBA4
:10426000070C870E920E47EA811742EA8312A7FBDA
:104270000201B6EB0B0164EB00042B0D43EA0C3397
:104280005E1844EB1C50DA465146E7FB0201C5F3C9
:1042900013044FEA0B3343EA14534FEA0432019CF0
:1042A00043EA0603A4F10C040294009CCDE900B497
:1042B00000F0BDF903B0BDE8F08F00200146F9E73A
:1042C0002DE9F04D81EA030404F0004B21F0004594
:1042D00014464FF0000A23F0004150EA050220D0B6
:1042E00054EA01021DD0C5F30A570246C5F3130371
:1042F000C1F31300C1F30A5640F4801543F4801350
:10430000A7EB0608101BD64608F2FD3873EB050034
:1043100002D308F1010801E092185B41B8F1000FE7
:1043200003DA00200146BDE8F08D00204FF4801133
:10433000064684460EE0171B73EB050705D3121BD8
:1043400063EB050306434CEA010C49084FEA3000D1
:1043500092185B4150EA0107EDD152EA030012D0F6
:1043600082EA040083EA0501084305D0101BAB4133
:1043700006D20122002306E000224FF0004302E0B3
:104380006FF0010253101AEB06004CEB085110EBD2
:104390000A0041EB0B01BDE8F04D00F039B9C10F47
:1043A00080EAE0700844CA079623002100F002B9B1
:1043B00096230022114600F0FDB80EB5C10F80EA29
:1043C000E0700844CA07002140F233438DE80E0034
:1043D0000A460B4600F02BF903B000BD0EB540F2C3
:1043E000334102910021CDE900110A460B4600F04D
:1043F0001EF903B000BD70B5C1F30A5201F00045CB
:104400000024C1F3130140F2FF3341F480119A42BA
:1044100001DA002070BD40F233439A42A2F23342E7
:1044200003DC524200F0ADF800E090402C43F1D0A4
:10443000404270BD00F0004230F000400AD0C10D93
:1044400001F56071C0F3160042EA0151C20840074D
:1044500011437047002001467047000030B5041E2C
:1044600071F1000404DB4FF00044404264EB0101B1
:10447000141E73F1000405DB1C464FF0004352424A
:1044800063EB04038B4208BF824230BD30B5041E8B
:1044900071F1000404DB4FF00044404264EB010181
:1044A000141E73F1000405DB1C464FF0004352421A
:1044B00063EB0403994208BF904230BD01F0004312
:1044C00030B421F0004150EA010206D00A0DA2F5F5
:1044D0006072C1F31301002A02DC30BC0020704777
:1044E000440F44EAC104C100E01830BC00EBC250E4
:1044F00000F057B830B50B460146002020220124B9
:1045000009E021FA02F59D4205D303FA02F5491BA1
:1045100004FA02F52844151EA2F10102F1DC30BDB7
:104520002DE9F05F0546002092469B4688460646E8
:10453000814640241BE0284641464746224600F07B
:1045400020F853465A46C01A914110D311461846D6
:10455000224600F08BF92D1A67EB01084F462246E0
:104560000120002100F082F917EB00094E41201EC6
:10457000A4F10104DFDC484631462A464346BDE843
:10458000F09F202A04DB203A21FA02F00021704734
:1045900021FA02F3D040C2F12002914008431946AB
:1045A00070470029A8BF7047401C490008BF20F091
:1045B0000100704710B4B0FA80FC00FA0CF050EA29
:1045C000010404BF10BC704749B1CCF1200421FAAA
:1045D00004F411FA0CF118BF012121430843A3EBA5
:1045E0000C01CB1D4FEA00614FEA102042BF0020B2
:1045F00010BC704700EBC35010440029A4BF10BC8E
:104600007047401C490008BF20F0010010BC7047F3
:1046100010B5141E73F1000408DA401C41F10001CA
:1046200092185B411A4301D120F0010010BD2DE921
:10463000F04D92469B4611B1B1FA81F202E0B0FA18
:1046400080F22032904600F011F904460F4640EA0D
:104650000A0041EA0B0153465A46084313D011465B
:1046600053EA010019D0C8F140025046FFF789FF14
:1046700005460E4650465946424600F0F7F80843B4
:1046800005D0012004E020463946BDE8F08D002029
:10469000054346EAE0762C4337430A986305E40A6B
:1046A000A0EB08000022FD0A44EA47540A3002D574
:1046B00000200146E9E7010510196941DDE90845D7
:1046C00000196941BDE8F04DA2E72DE9FE4F804693
:1046D00081EA0300C00F0C46009021F0004123F056
:1046E0000045B8EB0200A94105D24046214690465C
:1046F0001C460B46024623F00040104347D0270DCE
:10470000C7F30A00C3F30A510290401A01904028EF
:104710006BDAC3F3130040F4801B0098924620B17B
:104720000023D2EB030A63EB0B0B01985946C0F14F
:104730004002504600F09AF806460D46504659464B
:10474000019A00F0A2F810EB08006141002487EA0A
:10475000115284EAE7731A4340D0009A62B3019A77
:10476000012A4FEA075215DC001B61EB02014FF0F2
:10477000004202EA0752CDE90042001C41F58011D7
:1047800032462B46FFF753FF03B0BDE8F08F40469B
:104790002146F9E7001B61EB0201001C41F5801383
:1047A00000185B412018A2F5001747EB030140EA0F
:1047B000D570B6196D4111E06D084FEA360645EA2D
:1047C000C0754FEA0752001B61EB0201001C41F566
:1047D000801149084FEA30000019514132462B46FA
:1047E00003B0BDE8F04FFFF713BF0098012240006F
:1047F0000023D0EB020263EBE073009821464FEAFE
:10480000E074B8EB000061EB0401E9E783F00043DA
:104810005BE781F0004158E7C1F30A52C1F313018D
:1048200040F2FF3341F480119A4202DA002001463F
:10483000704740F233439A42A2F2334202DC5242C2
:10484000FFF79FBE00F012B8064C074D06E0E06887
:1048500040F0010394E8070098471034AC42F6D3C7
:10486000FBF76AFC1052000830520008202A04DBD3
:10487000203A00FA02F1002070479140C2F1200373
:1048800020FA03F3194390407047202A06DBCB1728
:10489000203A41FA02F043EAE07306E041FA02F3FB
:1048A000D040C2F12002914008431946704770B5CC
:1048B0008D1810F8014B14F0030201D110F8012BF0
:1048C000231106D110F8013B03E010F8016B01F849
:1048D000016B521EF9D1ABB110F8012B04F00C049E
:1048E0008A1A0C2C03D0A2EB84129B1C08E010F84F
:1048F000014BA2EB0422F8E712F8014B01F8014B3F
:104900005B1EF9D5A942D4D3002070BD0FB4054B6E
:1049100010B503A9044A029800F0DEF810BC5DF857
:1049200014FB000015310008881100200FB4084B5B
:1049300010B504A902AA039800F0CEF8044602A913
:10494000002000F060FC204610BC5DF814FB000065
:104950000752000802E008C8121F08C1002AFAD155
:1049600070477047002001E001C1121F002AFBD1EF
:10497000704700002DE9FF5FDDE90220010DDDF841
:1049800038B0024318D044F61050A1F2FF31414331
:104990000D140F98012820D0A5EB0B00401C5FEAF6
:1049A000000A4FF00004474EDFF81C91A046504625
:1049B00016D5CAF1000728E00F98012443A2012868
:1049C00008D0002100980F9BC0E90021C0E90243F4
:1049D000BDE8FF9F6FEA0B01F4E7CBF10000DEE7D3
:1049E000074612E0F80707D02246334640464946BC
:1049F000FFF7F4FB804689462246334610461946A7
:104A0000FFF7ECFB04460E467F10002FEAD1DDE9EC
:104A10000201BAF1000F42464B4602DAFFF7DEFB15
:104A200001E0FFF74DFC04460E460022284BFFF73D
:104A30002DFD03D84FF0FF30014607E00022254B43
:104A400020463146FFF741FEFFF7E6FE102409E05D
:104A5000002C0ADB0A220023FFF762FD019B3032A3
:104A60001A55641E50EA0102F2D1641C019AC4F185
:104A7000110314440F9A012A03D0012208430DD1D7
:104A80000AE0084304D000204FF0110B0F9080E79C
:104A9000A3EB0B056D1E0DE05B4504DD4FF000023E
:104AA00005F1010504E003DA4FF00002A5F101056C
:104AB000002AECD000980F99C0E90231C0E9004506
:104AC00086E70000000024400000F03F30000000B6
:104AD0000000F0430000E03F2DE9FF4F95B09B46FA
:104AE0008946064600250FE2252877D1002427466F
:104AF000F84A0121059400E0044316F8013F203BE9
:104B000001FA03F01042F7D130782A2811D06FF063
:104B10002F033078A0F13002092A16D8059A44F004
:104B2000020402EB820203EB42021044761C059061
:104B3000EFE759F8042B0592002A03DA504244F4B7
:104B40000054059044F00204761C30782E2816D1CB
:104B500016F8010F44F004042A280DD06FF02F023C
:104B60003078A0F13003092B09D807EB870302EB5B
:104B70004303C718761CF3E759F8047B761C30789A
:104B80006C280FD006DC4C2817D068280DD06A2876
:104B900014D104E0742810D07A280FD10DE044F429
:104BA00000140AE044F4801401E044F440147278E4
:104BB000824202D104F58014761C761C3078662877
:104BC0000BD013DC582877D009DC002875D0452895
:104BD000F6D04628F4D047281AD19DE118E0632882
:104BE00035D0642879D0652812D195E1702873D02A
:104BF00008DC6728F1D069286FD06E280DD06F28A7
:104C000006D1B5E073282CD0752875D0782874D0DB
:104C10005A46179990476D1C75E1C4F3025002285B
:104C200009D003280DD0D9F8001004280DD00D604C
:104C300009F1040967E1D9F80010EA17C1E9005247
:104C4000F6E7D9F800100D80F2E70D70F0E719F8DB
:104C5000041B8DF8001000208DF80100EA460120A9
:104C600003E059F804AB4FF0FF3061074FF000014B
:104C700002D40DE008F101018846B9420FDA8045FF
:104C8000F8DB1AF808100029F4D108E008F1010156
:104C900088468142FADB1AF808100029F6D10598F7
:104CA0005B46A0EB080721463846179A00F094FAB5
:104CB000284400EB080507E04DE029E10DE01AF873
:104CC000010B5A4617999047B8F10108F7D25B4695
:104CD00021463846179A13E142E00A220092C4F3B3
:104CE00002524FF0000A022A08D059F804CB032AD6
:104CF0004FEAEC710AD00DE029E02AE009F1070142
:104D000021F00702F2E802C1914609E00FFA8CFC9B
:104D10004FEAEC71042A03D14FFA8CFC4FEAEC7194
:104D2000002907DA0A460021DCF1000C61EB0201E0
:104D30002D2202E0220504D52B228DF80420012229
:104D400003E0E20701D02022F7E7904659E00A216C
:104D500002E010220DE010214FF0000A00910BE05C
:104D600010224FF0000A44F004040827009203E0E8
:104D700008224FF0000A0092C4F30252022A05D022
:104D800059F804CB0021032A08D009E009F10701F2
:104D900021F00702F2E802C1914605E01FFA8CFCFF
:104DA000042A01D10CF0FF0C4FF00008220728D58F
:104DB000702806D0009B83F0100353EA0A0305D045
:104DC0000EE040228DF80420012208E05CEA010296
:104DD00006D030228DF804208DF80500022290467E
:104DE000009B83F0080353EA0A030AD15CEA01023C
:104DF00001D1620705D530228DF804204FF001085B
:104E00007F1E582804D034A003900EA802900DE015
:104E100036A0F9E753466046009AFFF781FB8446C7
:104E20000398825C0298401E029002705CEA0100C6
:104E3000F0D1029806A9081A00F1200A600702D5ED
:104E400024F4803400E00127574502DDA7EB0A0077
:104E500000E0002000EB0A01009005984144401A50
:104E60000590E00306D45B462146179A059800F0AA
:104E7000B3F90544002706E001A85A46C05D17991A
:104E800090476D1C7F1C4745F6DBE0030CD55B4665
:104E90002146179A059800F09FF9054404E0302058
:104EA0005A46179990476D1C0099481E009000299A
:104EB000F5DC08E0029802995A460078491C0291F4
:104EC000179990476D1CBAF10001AAF1010AF1DCB3
:104ED00065E10000092801003031323334353637BE
:104EE0003839616263646566000000003031323336
:104EF00034353637383941424344454600000000D6
:104F000000F058F90544761C307800287FF4ECADA9
:104F100019B02846BDE8F08F620700D4062709F1D2
:104F2000070222F0070CFCE80223E14603F00048E8
:104F30005FEA080C02D00FF2702C0DE05FEA045C0F
:104F400002D50FF2682C07E05FEAC47C02D00FF2B2
:104F5000602C01E0AFF2700C4FF0FF3823F00043FB
:104F6000CDF850C065280CD006DC452809D046286D
:104F70001DD047283DD13DE0662818D067287ED156
:104F800038E00021112F01DB112000E0781CCDE971
:104F9000000106A90EA8FFF7EDFCDDE90F010E9A4E
:104FA00003910021009207F1010A04914DE04FF0B6
:104FB00000400097CDE9011006A90EA8FFF7DAFC22
:104FC000DDE90F0203920E9B11990022DDF80CA07F
:104FD0000093049211B9791C00EB010AB7EB0A00A7
:104FE00004D4C0F1FF3007F1010A0490AAEB0700D6
:104FF000019044E0012F00DA01270021112F01DD8B
:10500000112000E03846CDE9000106A90EA8FFF7FF
:10501000B1FCDDE90F010E9A039100210491009289
:10502000BA4621070CD40399514500DA8A46BAF1F1
:10503000010F05DD009AAAF10101515C302908D069
:10504000B84202DA10F1040F06DA0121CDE90110AD
:1050500015E0AAF10101E9E7002805DC0499014403
:105060000491AAEB000102E0411C514500DD8A4693
:105070000499401A401C01904FF000400290200714
:1050800004D40198504501DBCDF8048000208DF850
:105090004F0002980DF14F07B0F1004F25D02B20A3
:1050A0000E9002984FF0020800280CDA404202905D
:1050B0002D200E9007E00A210298FFF71BFA3031ED
:1050C000029007F8011DB8F10001A8F10108F2DC17
:1050D00002980028EFD1791E0E980870307800F001
:1050E000200040F0450007F8020D12A8C01B00F197
:1050F00007081498007800B1012000EB0A0101981C
:1051000001EBE07105984144401A401E0590E00310
:1051100006D45B462146179A059800F05DF80544D1
:105120001498007818B15A46179990476D1CE003FF
:1051300024D55B462146179A059800F04DF80544A2
:105140001CE00498002807DBDDE90301884203DD49
:105150000098405C179901E0179930205A46904713
:10516000049805F10105401C04900198401E01902F
:1051700004D12E205A46179990476D1CBAF10001B0
:10518000AAF1010ADDDC05E017F8010B5A46179970
:1051900090476D1CB8F10001A8F10108F4DC5B46F2
:1051A0002146179A0598ABE62D0000002B00000061
:1051B000200000002DE9F041044600251E46174658
:1051C000880404D405E039462020B0476D1C641ED5
:1051D000F9D52846BDE8F0812DE9F04104460025C7
:1051E0001E469046C80301D5302700E020278804DA
:1051F00004D505E041463846B0476D1C641EF9D51C
:105200002846BDE8F0810A68531C0B601070704797
:1052100030520008000000208C110000AE48000849
:10522000C05D00088C1100202404000064490008BF
:10523000031A010001300C4D6F64653A204155544A
:105240004F2001200F0053797374656D204E6F72EB
:105250006D616C11600500A24A042E600901020311
:1052600004060708090C611000062802040608005D
:105270000152F87D3233061004100C06037192209F
:105280000440C07803200500043F04031008000018
:105290007088FC08302E100E1820FF211E0000F030
:1052A00008F000E0183E4005211C031E1113887011
:1052B0000FE00C1E2123241927211010160E702038
:1052C00005E01804026A300B0718204000000204B1
:1052D00018E069200420180770300E4080F08040EC
:1052E00040000202010F01022832F0E01004010127
:1052F0001F047145C40480B0703B42010171B98341
:1053000030302C3008601804006018063E1006E0AB
:10531000100808107210070F102020100FF0461010
:1053200000240420203F5F300500700808C21006EA
:105330003028242221E910063008888848081618E9
:10534000902211CC33C020321407070424243F24B8
:105350003E112016086F431921202405E01088888B
:1053600010430F11103406380808C8388F323F8DAB
:105370004370886080071C222121221C90100600A7
:1053800031222211901161C2C0C26280C651081040
:10539000044020107014070102040810203031016D
:1053A00043000401130000152240321125130402AA
:1053B000F2137048D135431330360F1406C030C88D
:1053C00028E80020080718272423140B6F22387EB2
:1053D000200D203C23020227382008F88888FF256A
:1053E0000E21D017C03010270838AD15303406080C
:1053F0000008F808403120154021303004E808103A
:1054000030A004232018102300035E21403638ED1D
:10541000200520221E024011A41009F808203F2177
:1054200001012125220852958051112006C080805B
:10543000807F0E2007F888C02818087040050126D4
:105440003820405200A0132030201004F800F854F7
:1054500017203F60214F4004F830C0601220E4362E
:105460003F5F21B025EF41B021D033F000808301B0
:105470000020300718242438504FC0250131C03493
:10548000040C3020B021C1373820B032189F4218A8
:105490008231A041D02F001FB10334081F000878CB
:1054A000880000F1100407380E60119B12F8B54017
:1054B0001D00033C0700073C030008186880806853
:1054C000180820302C03032C30200838C82F5150E6
:1054D000218F213F18042038265129494C0400FE11
:1054E000020803267FE85804000C301F180500014D
:1054F00006382A111D3EFEA9032740403010040043
:10550000000412FE04E503528001F2001D31161959
:10551000C01806242222223F0032000F5B003FC049
:10552000312119D01A0ED04320114B4388F8102294
:1055300010B35140121F3F2322131E1AF042861847
:10554000D041772408006B94949493600B310F152D
:105550008041F3BC048098988003520012590115D1
:105560003B31311406203F24022D8F2930ADB0038A
:1055700061D7214B2103112BC16071A045A03120BF
:105580002D400493FFA1E04280E033A0FF4C315056
:1055900019A18004200001C0133324012219E04620
:1055A000E02125F252004D428060151031EC256853
:1055B0001C05010E300872042170256318040F3099
:1055C0000C4F320F2C41A16007312E0E31200030DC
:1055D0003C0580818E70A20455A73C050021302C2B
:1055E0008004215F4A7C012B003F015C040000FF26
:1055F000B9053108340402027CB04F404060041EFB
:105600000236054D60054DCF05100F8C4404E404AF
:1056100095A64424148444940C2F2C0B7A414143C6
:10562000427E42424243C704280E0484E45C44C4E0
:105630000002F2828282FE1F1406017F10103F6674
:10564000100508084888533C0F20102CE72424003C
:10565000E22C20BF2028E688051C067F2111804F00
:10566000FC03101010204F80004042CC0000445436
:1056700054547F0422449F2C0B7F201000FF1515EB
:10568000155595C0033C1D88681FC80810C85452A2
:10569000D1129408D01000091909FF0500FF1292D9
:1056A000FF005FE10339CA8C05E21CE000DE042E36
:1056B0000C39041D7D032640881C0D10EC27F42CAA
:1056C000E00022920ED2225F0600101F80601F09A8
:1056D0003F89FF000A0909FF090908A0053E0022C9
:1056E0008018151C410625DC2640C695863D3104F0
:1056F00020090808FF08090AC808A01C0C0010208F
:105700001F80402116182641FB033D30041C080869
:105710001010FF10101087051C061030101F0851C4
:105720000634050E014080B2400540301E101E17A1
:105730001010302C1081814121110D0301030D1136
:1057400021418181FE031008FA02FE4020D8173F54
:10575000112220078047300F10675F1C04081621B4
:10576000E905101940445465C664544400FC44449F
:10577000C442400020124A827F020A9287392038B0
:105780000E4020F807F0A0904C5724A4544CFA2C5B
:105790000BFF001F809252492924127705130484BD
:1057A000015C06FC4030CC0B890515BF83100860F6
:1057B0001D470643F754012EF4FF07480D809090D3
:1057C000494D57252525554D45EC140B60F807101C
:1057D000901011161010DF2D3203380BFF4040419E
:1057E0005E4040704E41AF1DBF042C08F2929A9665
:1057F0009292F2C80415C02C0A40201744847C04FD
:105800000417FF0719C02EC2C30435634E02C70434
:1058100051044DD80635A018082010E82724E43498
:105820000845A029061406093F49897F3F3008EF43
:10583000246448487F4804374000FF200400FF49A3
:1058400001350029A02004809E92013E9E29031C60
:10585000057F2094840E0334080F142444848400AC
:105860007C201090003F4848444444427000044467
:10587000827FC461411C052030AC6332084404F8C7
:10588000090E1F740622672212927F19601C0D10E8
:10589000D0FF9014E4AFA4A4A4AFE47F07170403DF
:1058A000612C0A894B2A1A0E1A2A4B8848041805BB
:1058B00020FF2020062AFF0A390024040F8848E32D
:1058C00035E11406001060028CE41EF2C50526F8CE
:1058D000B1340504047E01E42C04270047000522AE
:1058E00040C122900126FF643D9A051C07102860E4
:1058F0003F101061042C0C40F0002424A4FE23224D
:10590000003E7E051F223E1F0510070601FF01060F
:1059100040FE167F041E413F061EFC1B081408149F
:10592000155694543414C129BE1D24031C0441810E
:105930007F520937050340340C2480E49C105454F2
:10594000FF547C1040400C512618274445455F45C4
:105950004544A0300B109252321E3252921210A0C7
:10596000440C00211840807F08300409314029D9B7
:1059700042F8E02D1F03111D2567132020071E800C
:105980003D0342FE0531E12D53043004BF403F2367
:10599000224F281C0CFE225A8620102824E324289B
:1059A0009209193E2006040827110DA012055F2C4C
:1059B000040002FA98041C084020504C434C50301C
:1059C0000A441008184884443F404458414E6058E7
:1059D0004740204C070004C40404FC000925202A89
:1059E00048440C061F7F41414140A004290020107B
:1059F0009020988888E98E8888A89800024281B60D
:105A00003C07844B2810284709072DF8051724FC6C
:105A10005E15673D6F071C040202426303410109E2
:105A20001FC02C0F201808EAACA8A8AFA8A8ACEAA1
:105A30000828290B223E422C05FF020212CF041136
:105A40003F2AF29B22FE051D210319002EFFCB09E0
:105A5000140707040444847FB0C280010D10330C86
:105A60002405020C80607533C8085F1B0202401DCC
:105A70004C0B3C0506010618090A1DC7051D810AC5
:105A80004F009064042D180A10040C0304296E437F
:105A90007E0532FEA85EFF570A35B91D6804323F05
:105AA000C11C05780002E2170852FE0412E2E12A46
:105AB000FF6312160443024C420D7C0005A2804095
:105AC0003E1030032101327F0615803DA0035C0AA1
:105AD0001000FC24E4242223E2A0031C0783601F9F
