:020000040800F2
:1000000008260020190500081D0300081F0300082A
:1000100023030008270300082B030008000000004A
:100020000000000000000000000000004501000882
:100030002F03000800000000890100087B40000831
:100040002D0500082D0500082D0500082D050008C8
:100050002D0500082D0500082D0500082D050008B8
:100060002D0500082D050008C32800082D050008EF
:100070002D0500082D0500082D0500082D05000898
:100080002D0500082D0500082D0500082D05000888
:100090002D0500082D0500082D0500082D05000878
:1000A0002D0500082D0500082D0500082D05000868
:1000B0002D050008652B00082D0500082D050008FA
:1000C0002D0500082D0500082D0500082D05000848
:1000D0002D050008C72900082D0500082D0500087A
:1000E0002D0500082D0500082D0500082D05000828
:1000F0002D0500082D0500082D0500082D05000818
:100100002D0500082D0500082D0500082D05000807
:100110002D0500082D0500082D0500082D050008F7
:100120002D0500082D0500082D0500082D050008E7
:10013000DFF80CD007F0B0F90048004709020008CA
:1001400008260020224B19680868B0E8F00F80F3F9
:100150000988BFF36F8F4FF0000080F311884EF0D5
:100160000D0E70470000000006480068006880F32C
:10017000088862B661B6BFF34F8FBFF36F8F00DFA1
:1001800000BF00BF08ED00E0EFF30980BFF36F8F01
:100190000F4B1A6820E9F00F106008B54FF05000BF
:1001A00080F31188BFF34F8FBFF36F8F05F083F992
:1001B0004FF0000080F31188BDE808401968086816
:1001C000B0E8F00F80F30988BFF36F8F704700BF6E
:1001D000A0000020EFF305807047000000BF502012
:1001E00080F31188BFF34F8FBFF36F8F00BF00BF45
:1001F000FEE700BF502080F31188BFF34F8FBFF39D
:100200006F8F00BF00BFFEE71CB54FF4407000F0D9
:1002100093F903F04FF902F073FA02F0A7FA02F033
:100220007EFB02F041FC02F0D3FC02F09EFD02F0E6
:10023000AFFF03F02BF802F0B5FA02F00AFB02F070
:100240006DFE03F0DFF8002003F020F900221021FA
:10025000042003F094FF214908600846006802F07A
:100260005BFB0020022103464FF4C072CDE9001071
:100270001BA11D4804F045FD1C48032100234FF439
:100280000072CDE900101AA11B4804F03AFD0020CD
:10029000012103460A02CDE9001018A1194804F013
:1002A00030FD002001210346C022CDE9001016A137
:1002B000174804F026FD0020009003464FF480729A
:1002C00014A10190144804F01CFD0848006802F0D5
:1002D000BDFA05F000FB00BFFEE7000000000020B3
:1002E00053656E736F7200003535000804000020FE
:1002F000436F6E74726F6C00473600084469737008
:100300006C617900853A00084B65795363616E0032
:10031000DB3800084C6F6700B73A0008704700BF31
:10032000FEE700BFFEE700BFFEE700BFFEE7704745
:100330000CB50020019000906C48006840F48030BB
:100340006A49086000BF6948006800F40030009006
:100350000198401C0190009818B90198B0F5A06F61
:10036000F1D16248006800F4003010B10120009023
:1003700001E0002000900098012843D15C4800680B
:1003800040F010005A4908600846006820F0030059
:1003900008600846006840F0020008605348406862
:1003A000524948600846406848600846406840F442
:1003B000806048600846406820F47C104860084629
:1003C000406840F4881048600846006840F080703B
:1003D000086000BF4548006800F000700028F9D0B0
:1003E0004248406820F003004049486008464068A1
:1003F00040F00200486000BF3C48406800F00C003C
:100400000828F9D10CBD10B5FFF792FF10BD10B54B
:100410003648006840F001003449086008464068EA
:10042000344908403149486008460068324908406C
:100430002E4908600846006820F4802008600846BD
:10044000406820F4FE0048604FF41F008860FFF70A
:10045000DAFF4FF000602949086010BD10B5002197
:1004600000200022214B5B6803F00C0121B104291C
:1004700006D0082928D107E0214B224C236027E031
:10048000214B204C236023E0184B5B6803F4701071
:10049000164B5B6803F48032022303EB904022B9D1
:1004A0001A4B4343174C23600DE0104B5B6803F479
:1004B000003323B1164B4343124C236003E0124B2D
:1004C0004343104C236003E00D4B0E4C236000BFF0
:1004D00000BF064B5B68C3F303130E4CE15C094B92
:1004E0001B68CB40074C236010BD00000010024089
:1004F000002002400000FFF8FFFFF6FE08ED00E0DC
:1005000000127A0008000020001BB70000093D001F
:10051000808D5B000C00002005488047054800479F
:10052000FEE7FEE7FEE7FEE7FEE7FEE7FEE7000088
:100530000F0400083101000831490143314A1160BC
:10054000704770B5002100230F22C47804B32D4CEE
:10055000246804F4E064C4F5E064210AC1F10403F2
:10056000CA40447804FA03F1847814402143090115
:10057000254C0678A155047804F01F050124AC40F1
:1005800005786D11AD0005F1E025C5F8004109E0E1
:10059000047804F01F050124AC401C4D0678761148
:1005A00045F8264070BD1A4A0A400243154B1B1FEE
:1005B0001A60704739B1134A121D12680243114B79
:1005C0001B1D1A6006E00F4A121D126882430D4B74
:1005D0001B1D1A607047042808D14FF0E0210969FB
:1005E00041F004014FF0E022116107E04FF0E021FB
:1005F000096921F004014FF0E02211617047000009
:100600000000FA050CED00E000E400E080E100E00D
:1006100080FFFF1F10B50446FA48844208D101212B
:10062000401500F00DFF0021601500F009FF17E0F4
:10063000F548844208D10121001500F001FF002196
:10064000201500F0FDFE0BE0F048844208D10121A6
:10065000C80300F0F5FE00214FF4004000F0F0FE6A
:1006600010BD30B50246002000235068E84C204001
:100670000D790C6844EA0524204350609068E54CED
:100680002040D1E902542C434D7944EA45042043EB
:100690009060D06A20F470000C7C641EE4B22343A6
:1006A00040EA0350D06230BD002101600171417108
:1006B0008160C16001210174704721B1826842F0FC
:1006C0000102826003E0826822F0010282607047CA
:1006D00021B1826842F48072826003E0826822F471
:1006E00080728260704710B50023CBB21AB14468A3
:1006F0001C43446002E044689C43446010BD816830
:1007000041F0080181607047014600208A6802F0CC
:1007100008020AB1012000E000207047816841F022
:10072000040181607047014600208A6802F00402DB
:100730000AB1012000E00020704721B1826842F434
:10074000A002826003E0826822F4A0028260704707
:10075000014600208A6802F480020AB1012000E00C
:100760000020704710B50A4600210023416821F49B
:100770006041531E41EA4331416010BD21B14268DE
:1007800042F40062426003E0426822F40062426088
:100790007047F0B504460D4600200021092D11DDFB
:1007A000E068A5F10A0606EB4607072606FA07F1F8
:1007B0008843A5F10A0606EB460603FA06F108434C
:1007C000E0600CE0206905EB4507072606FA07F113
:1007D000884305EB450603FA06F108432061072A22
:1007E0000FDA606B561E06EB86071F2606FA07F126
:1007F0008843561E06EB860605FA06F10843606339
:1008000022E00D2A0FDA206BD61F06EB86071F2683
:1008100006FA07F18843D61F06EB860605FA06F1AD
:100820000843206310E0E06AA2F10D0606EB86079C
:100830001F2606FA07F18843A2F10D0606EB86068D
:1008400005FA06F10843E062F0BD21B1826842F486
:100850008012826003E0826822F480128260704716
:100860000146C86C80B2704766484C3000687047DB
:1008700021B1426842F48062426003E0426822F49F
:1008800080624260704721B1426842F48052426007
:1008900003E0426822F48052426070470A46002119
:1008A000816821F4E04111438160704721B1826881
:1008B00042F40042826003E0826822F400428260D7
:1008C000704721B1826842F40212826003E08268BC
:1008D00022F4021282607047014600208A6802F406
:1008E00000120AB1012000E000207047F0B5044674
:1008F0001546002000220026092911DDE068A1F13B
:100900000A0707EB470C072707FA0CF29043A1F1FF
:100910000A0707EB470703FA07F21043E0600CE011
:10092000206901EB410C072707FA0CF2904301EB19
:10093000410703FA07F210432061A06BC0F3015690
:10094000EF1C06F1010CA7EB0C0707EB870C1F2728
:1009500007FA0CF29043EF1C06F1010CA7EB0C0711
:1009600007EB870701FA07F21043A063F0BD10B54B
:100970000A4600210023816B21F44011531E41EAF5
:100980000351816310BD08B5002300930090009BC4
:100990000B440093009B1A6008BD08B50246002076
:1009A0000090009201F12800009B184400900098EC
:1009B000006880B208BD0A4600214168164B194004
:1009C0001143416070474162826270470A460021CC
:1009D000416821F01F0111434160704740B109494E
:1009E0000831096841F40001064A0832116007E045
:1009F00004490831096821F40001024A08321160F3
:100A0000704700000024014000280140003C0140E4
:100A1000FFFEF0FFFDF7F1FFFFFD3FFF0246002064
:100A200013680B400BB1012000E000207047CA435F
:100A30000260704770B502460020002300240B12AC
:100A40005568CEB205EA060415681D4015B10CB113
:100A5000012000E0002070BD00220A12D343036091
:100A60007047000001684FF6FE72114001600021DE
:100A7000016041608160C1608D49884208D18C4924
:100A80000839496841F00F01894A083A51608AE003
:100A900087491431884208D185490839496841F0AD
:100AA000F001834A083A51607DE08149283188424B
:100AB00008D17F490839496841F470617C4A083A95
:100AC000516070E07A493C31884208D17849083950
:100AD000496841F47041764A083A516063E07449CC
:100AE0005031884208D172490839496841F470216F
:100AF0006F4A083A516056E06D496431884208D126
:100B00006B490839496841F47001694A083A5160F3
:100B100049E067497831884208D165490839496810
:100B200041F07061624A083A51603CE06149884294
:100B300006D1011F096841F00F01021F116032E068
:100B40005C491431884208D15A49091F096841F0AB
:100B5000F001584A121F116025E056492831884299
:100B600008D15449091F096841F47061514A121FA4
:100B7000116018E04F493C31884208D14D49091FA6
:100B8000096841F470414B4A121F11600BE049495A
:100B90005031884207D14749091F096841F4702143
:100BA000444A121F1160704710B50022026847F6D0
:100BB000F0739A430C6A8B6823430C6923434C6996
:100BC00023438C692343CC6923434C6A23438C6AB7
:100BD00023431A430260CB6843600B6883604B6811
:100BE000C36010BD0021016041608160C16001618E
:100BF00041618161C161016241628162704721B1DD
:100C0000026842F00102026004E002684FF6FE73DF
:100C10001A40026070471AB103680B43036002E098
:100C200003688B4303607047416070470146486822
:100C300080B2704701460020002201F080531BB1B2
:100C40001C4B083B1A6802E0194B083B1A6802EA81
:100C500001030BB1012000E00020704700F080513B
:100C600019B11449091F086002E0114908394860A8
:100C7000704701460020002201F080531BB10D4B4C
:100C8000083B1A6802E00A4B083B1A6802EA0103B3
:100C90000BB1012000E00020704700F0805119B135
:100CA0000449091F086002E001490839486070479B
:100CB0000800024008040240002044490860091D61
:100CC0000860091D0860091D086041483F4914314A
:100CD0000860704700213D498279002A3AD00A46CF
:100CE000126803689A430B461A600A1D126803686B
:100CF0009A430B1D1A60027911440A6803681A436B
:100D00000A60324A0832126803689A432F4B08334C
:100D10001A601A1D126803689A432C4B0C331A6030
:100D20004279102A0ED11A1F126803681A43274B02
:100D300008331A601A1D126803681A43234B0C33D8
:100D40001A600DE02149427911440A6803681A4388
:100D50000A6005E0027911440A6803689A430A6050
:100D600070470021016001710C21417100218171E6
:100D700070471649103109680143144A1032116056
:100D8000704701460020114A143212680A400AB125
:100D9000012000E0002070470C49143108607047C2
:100DA000014600200022094B1B6803EA0102074BA1
:100DB00014331B680B4013B10AB1012000E000207E
:100DC0007047024914310860704700000004014078
:100DD000FFFF0F0010B50446CC48844208D1012122
:100DE000042000F02DFB0021042000F029FB46E048
:100DF000C748844208D10121082000F021FB0021CE
:100E0000082000F01DFB3AE0C248844208D10121CD
:100E1000102000F015FB0021102000F011FB2EE047
:100E2000BD48844208D10121202000F009FB0021A7
:100E3000202000F005FB22E0B848844208D10121BF
:100E4000402000F0FDFA0021402000F0F9FA16E001
:100E5000B348844208D10121802000F0F1FA00213A
:100E6000802000F0EDFA0AE0AE48844207D101216B
:100E7000801500F0E5FA0021A01500F0E1FA10BDA0
:100E800010B50121084600F0DBFA0021012000F036
:100E9000D7FA10BD2DE9F0410246002500260020BA
:100EA00000230024002791F803C00CF00F0591F8EF
:100EB00003C00CF0100CBCF1000F03D091F802C07D
:100EC0004CEA050591F800C0BCF1000F31D0146860
:100ED00000202BE04FF0010C0CFA00F3B1F800C039
:100EE0000CEA03069E4220D183004FF00F0C0CFA4F
:100EF00003F7BC4305FA03FC4CEA040491F803C071
:100F0000BCF1280F06D14FF0010C0CFA00FCC2F81E
:100F100014C00AE091F803C0BCF1480F05D14FF0AE
:100F2000010C0CFA00FCC2F810C0401C0828D1D3F8
:100F30001460B1F800C0BCF1FF0F34DD546800202C
:100F40002EE000F1080C4FF0010808FA0CF3B1F89C
:100F500000C00CEA03069E4221D183004FF00F0C23
:100F60000CFA03F7BC4305FA03FC4CEA040491F8BD
:100F700003C0BCF1280F05D100F1080C08FA0CF8E9
:100F8000C2F8148091F803C0BCF1480F07D100F1FA
:100F9000080C4FF0010808FA0CF8C2F81080401C49
:100FA0000828CED35460BDE8F0814FF6FF71018070
:100FB000022181700421C1707047024600209368AD
:100FC0000B400BB1012000E000207047014688680B
:100FD00080B2704702460020D3680B400BB101205D
:100FE00000E0002070470146C86880B27047016188
:100FF0007047416170470AB1016100E0416170478B
:10100000C16070474FF480320A438261816182611E
:1010100082698269704702460020434B18684FF688
:101020008073184040EA021008433F4B1860704735
:101030003E49C8617047F0B50A46002300240021EC
:10104000002500F00046B6F1004F02D1364EF1699E
:1010500001E0354E7168C0F3034583B200F44016D9
:10106000B6F5401F08D121F070612F4E766826F04A
:1010700070662D4F7E6012E000F48016B6F5801F7A
:1010800006D1032606FA05F4A14341F0706106E09B
:10109000460D360103FA06F6B14341F0706122B104
:1010A000460D360103FA06F6314300F00046B6F16C
:1010B000004F02D11C4EF16101E01B4E7160F0BD8A
:1010C00030B500228B071C0F0F2303FA04F2164BD6
:1010D00008338C1053F824309343134C08348D108C
:1010E00044F8253023468C1053F824308C07240F05
:1010F00000FA04F423430C4C08348D1044F82530D6
:1011000030BD0A49DC31086070470000000801402A
:10111000000C014000100140001401400018014083
:10112000001C01400020014000000140000020425E
:10113000DF48006840F00100DD490860084640686B
:10114000DC490840DA49486008460068DA49084046
:10115000D74908600846006820F4802008600846E7
:10116000406820F4FE0048604FF41F00886070471C
:10117000CF49096821F48031CD4A116011460968D0
:1011800021F480211160B0F5803F03D0B0F5802FAD
:101190000ED106E0C649096841F48031C44A1160A5
:1011A00007E0C349096841F4A021C14A116000E089
:1011B00000BF00BF704710B5014600220023002089
:1011C0004A11012A02D1BA4C236806E0022A02D150
:1011D000B74C236A01E0B64C636A01F01F02012498
:1011E00094401C400CB1012000E0002010BD38B537
:1011F000002000900024002500BF3120FFF7DBFF16
:1012000005460098401C00900098B0F5A06F01D0F2
:10121000002DF2D03120FFF7CEFF08B1012400E00D
:101220000024204638BD01460020A14A106820F065
:10123000F80040EAC10010607047A049086070479C
:10124000024600209A4B586820F47C1042EA0103C1
:101250001843974B58607047984908667047014695
:101260000020934A506820F0030008435060704704
:101270008F48406800F00C007047014600208C4AFF
:10128000506820F0F000084350607047014600208D
:10129000874A506820F4E060084350607047014678
:1012A0000020834A506820F4605040EAC10050603A
:1012B000704729B17E4A527A02437D4B5A7204E04C
:1012C0007B4A527A82437A4B5A7270477B49D831B3
:1012D0000860704701460020754A506820F440407D
:1012E0000843506070470021714A20321170704AE3
:1012F00082F82010012802D004280AD104E001213C
:101300006B4A2032117005E00521694A20321170C4
:1013100000E000BF00BF704769490860704764493A
:10132000096A0143624A116270476549443908609D
:10133000704730B500210022002400235C4D6D6809
:1013400005F00C0121B1042905D0082923D105E0BD
:101350005C4D056022E05C4D05601FE0544D6D68FA
:1013600005F47012524D6D6805F48034022505EBCA
:1013700092421CB9554D554305600BE04C4D6D68CC
:1013800005F400351DB1524D5543056002E04E4D48
:101390005543056002E04B4D056000BF00BF444D62
:1013A0006D6805F0F00109094A4D6B5C0568DD4088
:1013B00045603F4D6D6805F4E061090A454D6B5C81
:1013C0004568DD4085603A4D6D6805F46051C90A95
:1013D000404D6B5C4568DD40C560354D6D6805F47A
:1013E0004041890B3C4D6B5CC568B5FBF3F505616D
:1013F00030BD29B12E4A526902432D4B5A6104E097
:101400002B4A526982432A4B5A61704729B1284AB4
:1014100092690243264B9A6104E0254A926982430D
:10142000234B9A61704729B1214AD2690243204B6C
:10143000DA6104E01E4AD26982431D4BDA617047CB
:1014400029B11B4AD2680243194BDA6004E0184AFA
:10145000D2688243164BDA60704729B1144A126988
:101460000243134B1A6104E0114A12698243104B84
:101470001A61704712494039086070470F49C864C3
:1014800070470B49C87170470948406A40F0807046
:1014900007494862704701460020054A92680A40A1
:1014A0000AB1012000E000207047014988727047AE
:1014B000001002400000FFF8FFFFF6FE000042426D
:1014C0008004424200127A00001BB70000093D0070
:1014D000808D5B001C0000202C00002010B504460D
:1014E000FE48844208D10121C014FFF7A9FF002162
:1014F000E014FFF7A5FFC4E0B4F1804F08D101214B
:101500000846FFF7AAFF00210120FFF7A6FFB8E079
:10151000F348844208D101210220FFF79EFF0021F9
:101520000220FFF79AFFACE0EE48844208D1012187
:101530000420FFF792FF00210420FFF78EFFA0E0B8
:10154000E948844208D101210820FFF786FF0021E5
:101550000820FFF782FF94E0E448844208D101218B
:101560001020FFF77AFF00211020FFF776FF88E0B8
:10157000DF48844208D101212020FFF76EFF0021BF
:101580002020FFF76AFF7CE0DA48844208D101217D
:101590004014FFF755FF00216014FFF751FF70E082
:1015A000D548844209D10121C804FFF749FF002131
:1015B0004FF40020FFF744FF63E0D048844209D194
:1015C00001210805FFF73CFF00214FF48010FFF7D1
:1015D00037FF56E0CA48844209D101214805FFF788
:1015E0002FFF00214FF40010FFF72AFF49E0C54804
:1015F000844208D101214020FFF72FFF0021402025
:10160000FFF72BFF3DE0C048844208D10121802034
:10161000FFF723FF00218020FFF71FFF31E0BB48C9
:10162000844208D101218015FFF717FF0021A01582
:10163000FFF713FF25E0B648844209D101210804D1
:10164000FFF7FEFE00214FF48030FFF7F9FE18E0AF
:10165000B048844209D101214804FFF7F1FE00217E
:101660004FF40030FFF7ECFE0BE0AB48844208D1AA
:1016700001218804FFF7E4FE00214FF48020FFF7EA
:10168000DFFE10BD00220288944B98420ED0994B89
:1016900098420BD0B0F1804F08D0914B984205D0C2
:1016A000904B984202D0904B984204D14FF68F73E2
:1016B0001A404B881A438D4B984207D08C4B984266
:1016C00004D04FF6FF431A40CB881A4302808B8820
:1016D00083850B880385814B98420BD0854B9842BC
:1016E00008D08B4B984205D08A4B984202D08A4B47
:1016F000984201D10B7A038601238382704770B52B
:10170000002400220023058C4FF6FE763540058428
:10171000028C8388048B4FF68F752C40B51E2C40AD
:101720000D882C43751E2A400D892A434D882A4373
:101730006A4DA8420BD06F4DA84208D0744DA84204
:1017400005D0744DA84202D0734DA84213D14FF674
:10175000F7752A404D892A434FF6FB752A408D883C
:101760002A434FF6FF652B404FF6FF552B408D89DE
:101770002B43CD892B4383800483CD8885860284C7
:1017800070BD70B5002400220023058C4FF6EF7663
:1017900035400584028C8388048B48F6FF752C4005
:1017A0004FF6FF452C400D884FF6FF7606EA0525DB
:1017B0002C434FF6DF752A400D8906EA05152A43AA
:1017C0004D8806EA05152A43444DA84202D0494DEA
:1017D000A8421DD14FF67F752A404D894FF6FF76FE
:1017E00006EA05152A434FF6BF752A408D8806EA9A
:1017F00005152A434FF6FF352B404FF2FF752B405E
:101800008D8906EA85052B43CD8906EA85052B439C
:1018100083800483CD880587028470BD70B5002461
:1018200000220023058C4FF6FF6635400584028CAC
:101830008388848B4FF68F752C404FF6FC752C40B7
:101840000D882C434FF6FF552A400D894FF6FF7641
:1018500006EA05252A434D8806EA05252A431F4D39
:10186000A84202D0234DA8421DD14FF2FF752A4055
:101870004D894FF6FF7606EA05252A434FF6FF35D8
:101880002A408D8806EA05252A434EF6FF752B402F
:101890004DF6FF752B408D8906EA05152B43CD8942
:1018A00006EA05152B4383808483CD8885870284CF
:1018B00070BD70B5002200230024058C4EF6FF7623
:1018C00035400584038C8488828B48F6FF752A4056
:1018D0004FF6FF452A400D8820E00000002C014013
:1018E0000004004000080040000C004000100040D0
:1018F0000014004000340140004C01400050014001
:101900000054014000180040001C0040002000402E
:101910000040014000440140004801404FF6FF767E
:1019200006EA05252A434DF6FF752B400D8906EA88
:1019300005352B434D8806EA05352B43FA4DA84261
:1019400002D0FA4DA84208D14BF6FF752C408D8984
:101950004FF6FF7606EA85152C4384808283CD8876
:10196000A0F84050038470BD828B4FF2FF331A40C1
:101970008283828B4FF6FF7303EA01231A4382832B
:101980007047F0B50C461546002200210026078C52
:101990004EF6FF7C07EA0C070784828B018C4FF61A
:1019A000FF7707EA043640F6FF473A404FF6FF77E5
:1019B00007EA05273A434FF6FF7707EA03373A432A
:1019C000D94FB8420ED0D94FB8420BD0B0F1804FAA
:1019D00008D0D74FB84205D0D64FB84202D0D64F24
:1019E000B84206D14DF6FF77394046F48057394367
:1019F00005E047F6FF57394044F480573943828366
:101A00000184F0BD828B4FF6F3731A408283828B80
:101A10000A4382837047F0B50C4615460022002128
:101A20000026078C4FF6FF6C07EA0C070784828BB1
:101A3000018C4FF6FF7707EA04264FF60C773A4001
:101A40004FF6FF7707EA03172F433A43B64FB842E2
:101A50000ED0B64FB8420BD0B0F1804F08D0B44F83
:101A6000B84205D0B34FB84202D0B34FB84206D106
:101A70004FF6FF57394046F48077394305E04FF27F
:101A8000FF57394044F48077394382830184F0BDA5
:101A9000028B4FF2FF331A400283028B4FF6FF7323
:101AA00003EA01231A4302837047F0B50C4615463A
:101AB000002200210026078C4FF6EF7C07EA0C0776
:101AC0000784028B018C4FF6FF7707EA041640F675
:101AD000FF473A404FF6FF7707EA03373A434FF69E
:101AE000FF7707EA05273A438F4FB8420ED08F4F52
:101AF000B8420BD0B0F1804F08D08D4FB84205D01E
:101B00008C4FB84202D08C4FB84206D14FF6DF77E7
:101B1000394046F01007394305E04FF65F7739400A
:101B200044F01007394302830184F0BD028B4FF665
:101B3000F3731A400283028B0A4302837047F0B5A5
:101B40000C46154600220021068C4FF6FE773E40DB
:101B50000684028B018C4FF60C7632407E1C06EA1E
:101B600003162E433243704EB0420ED06F4EB04239
:101B70000BD0B0F1804F08D06D4EB04205D06D4E05
:101B8000B04202D06C4EB04206D14FF6FD763140E5
:101B900044F00106314305E04FF6F576314044F05C
:101BA0000106314302830184F0BD70B505460C4641
:101BB0005D4885420ED05D4885420BD0B5F1804F1F
:101BC00008D05B48854205D05A48854202D05A4821
:101BD000854200D100E000BF208850B92389A28847
:101BE00061882846FFF7ABFFE1882846FFF79EFF94
:101BF00025E0208804280AD12389A2886188284604
:101C0000FFF753FFE1882846FFF742FF17E02088DF
:101C100008280AD12389A28861882846FFF7FBFE9D
:101C2000E1882846FFF7EEFE09E02389A288618853
:101C30002846FFF7A6FEE1882846FFF795FE70BD0F
:101C40002DE9F04105460C4600260127608808B9B9
:101C5000022600E00026A088012801D1022700E02A
:101C600001272088A0B92389A28861882846FFF728
:101C700066FFE1882846FFF759FF23893A46314637
:101C80002846FFF712FFE1882846FFF701FF13E01F
:101C90002389A28861882846FFF707FFE188284644
:101CA000FFF7F6FE23893A4631462846FFF747FFFD
:101CB000E1882846FFF73AFFBDE8F0810A884B88A3
:101CC0001A438B881A43CB881A430B891A434B89D2
:101CD0001A438B891A43A0F8442070474FF6FF71CE
:101CE000818000210180C180418001727047002104
:101CF000018041808180C180018141818181C181D8
:101D00007047002101804180012181800021C18034
:101D1000018170470021018041808180C180018163
:101D20004181818170470000002C01400034014056
:101D30000004004000080040000C004021B102886F
:101D400042F00102028004E002884FF6FE731A405E
:101D50000280704731B1B0F8442042F40042A0F84C
:101D6000442005E0B0F84420C2F30E02A0F844205D
:101D700070471AB183890B43838102E083898B43C7
:101D8000838170478182704741EA0203A0F848309E
:101D900070471AB183890B43838102E083898B43A7
:101DA0008381704701894FF6F872114001817047B5
:101DB0000A46002101894FF68F73194011430181B2
:101DC000704730B504460D4629462046FFF7F0FF20
:101DD000208940F00700208130BD2DE9F041044604
:101DE0000D4616461F46602D06D13B460122314660
:101DF0002046FFF75AFE05E03B46012231462046C9
:101E0000FFF79DFE29462046FFF7D2FF208940F0CC
:101E100007002081BDE8F08130B50C460021018922
:101E2000C9B24FF6FF7505EA03251543254329433B
:101E3000018130BD2DE9F04105460E461746984612
:101E4000002443463A4631462846FFF7E5FF2C89F1
:101E50004FF6F870044044F007044FF68F700440CA
:101E600044F070042C81BDE8F081F0B504460D46C5
:101E700016461F463B46324629462046FFF7CCFF12
:101E8000208940F480402081F0BD01858282704726
:101E90000A46002101884FF68F73194011430180D3
:101EA0007047F0B50C4615461E460021002200235F
:101EB0000189028B038C4FF6F877394021434FF6A6
:101EC000FC473A4040F201173A434FF6DD773B407A
:101ED0004FF6FF7707EA06172F433B430181028342
:101EE0000384F0BD0A460021018B4FF68F73194021
:101EF0001143018370470A460021018B48F6FF73A6
:101F000019404FF6FF7303EA022319430183704718
:101F10000A460021818B4FF68F731940114381834C
:101F200070470A460021818B48F6FF7319404FF62F
:101F3000FF7303EA022319438183704721B10288AA
:101F400042F08002028004E002884FF67F731A405C
:101F50000280704721B1828842F00402828004E04E
:101F600082884FF6FB731A408280704721B18288C5
:101F700042F00802828004E082884FF6F7731A402C
:101F80008280704721B1828842F00102828004E0A1
:101F900082884FF6FE731A40828070470A460021FD
:101FA000018B4FF6F77319401143018370470A46BE
:101FB0000021018B4FF2FF7319404FF6FF7303EAC4
:101FC00002231943018370470A460021818B4FF693
:101FD000F77319401143818370470A460021818BB2
:101FE0004FF2FF7319404FF6FF7303EA02231943C0
:101FF000818370470A460021018B4FF6FB7319401D
:102000001143018370470A460021018B4FF6FF33CD
:1020100019404FF6FF7303EA022319430183704707
:102020000A460021818B4FF6FB73194011438183CF
:1020300070470A460021818B4FF6FF3319404FF657
:10204000FF7303EA02231943818370470A46002184
:10205000018B4FF67F7319401143018370470A4685
:102060000021018BC1F30E014FF6FF7303EA022337
:102070001943018370470A460021818B4FF67F7315
:1020800019401143818370470A460021818BC1F3B7
:102090000E014FF6FF7303EA022319438183704751
:1020A0000A460021018C4FF6FD731940114301844B
:1020B00070470A460021018C4FF6F773194011430F
:1020C000018470470A460021018C4FF6DF731940E6
:1020D0004FF6FF7303EA02131943018470470A465F
:1020E0000021018C4FF67F7319404FF6FF7303EA0E
:1020F00002131943018470470A460021018C4FF6F0
:10210000FF5319404FF6FF7303EA0223194301847A
:1021100070470A460021018C4FF2FF7319404FF6B9
:10212000FF7303EA02231943018470470A46002122
:10213000018C4DF6FF7319404FF6FF7303EA02332B
:1021400019430184704730B5002301248C40A3B2A9
:10215000048C9C430484048C02FA01F5ADB22C4338
:10216000048430BD30B5002304248C40A3B2048C19
:102170009C430484048C02FA01F5ADB22C43048420
:1021800030BD70B5034600200024184618300125E4
:102190008D40ACB21D8CA5431D8409B1082909D11D
:1021A00000EB6100056825F07005056005681543C2
:1021B00005600EE00D1FC5F34E052844056825F4A3
:1021C000E045056005684FF6FF7606EA02263543CE
:1021D000056070BD21B1028842F00202028004E075
:1021E00002884FF6FD731A400280704721B10288C1
:1021F00042F00402028004E002884FF6FB731A40AA
:102200000280704721B1828842F08002828004E01F
:1022100082884FF67F731A408280704702884FF69B
:10222000F7731A40028002880A430280704782884E
:102230004FF68F731A40828082880A4382807047EB
:1022400002894FF6F8731A40028102890A4302811B
:10225000704702894FF67F731A40028102890A4350
:1022600002817047818470478185704781867047FD
:102270000187704781877047A0F840107047028837
:102280004FF6FF431A40028002880A4302807047DB
:102290000146888E70470146088F70470146888F37
:1022A00070470146B1F8400070470146888C70477E
:1022B0000146088D704702460020138A0B400BB17F
:1022C000012000E000207047CA430282704730B509
:1022D0000246002000230024158A05EA010395899F
:1022E00005EA010413B10CB1012000E0002030BD6B
:1022F000CA4302827047000010B50446FB4884427E
:1023000009D101218803FFF79BF800214FF4804099
:10231000FFF796F832E0F648844209D101214804DB
:10232000FFF79BF800214FF40030FFF796F825E007
:10233000F048844209D101218804FFF78EF800217A
:102340004FF48020FFF789F818E0EB48844209D168
:102350000121C804FFF781F800214FF40020FFF7A6
:102360007CF80BE0E548844208D101210805FFF71D
:1023700074F800214FF48010FFF76FF810BD2DE9BD
:10238000F04786B005460E460024A24600BFA1468F
:102390000027B08900B100BF2F462C8A4CF6FF7091
:1023A0000440F08804432C82AC894EF6F3100440BC
:1023B000B08831890843718908430443AC81AC8AF1
:1023C0004FF6FF400440B0890443AC8201A8FEF7F9
:1023D000B0FFC648874202D1DDF810A001E0DDF869
:1023E0000CA0A88900F4004040B10AEBCA0000EB41
:1023F0000A1031684900B0FBF1F807E00AEBCA00A7
:1024000000EB0A1031688900B0FBF1F86420B8FBDA
:10241000F0F004012009642101FB1089A88900F46F
:10242000004040B1322000EBC900B0FBF1F000F0F9
:102430000700044308E0322000EB09106421B0FBE0
:10244000F1F000F00F0004432C8106B0BDE8F087E6
:102450004FF41651016000218180C18001810C215F
:10246000418100218181704710B502460020108A09
:102470004FF2FF0318400B884C8823438C8823437A
:10248000CC8823431843108210BD00210180418075
:102490008180C180704721B1828942F400528281DB
:1024A00004E082894DF6FF731A4082817047F0B5CF
:1024B0000346002400260025002040F66A17B94292
:1024C00000D100BF1846C1F3421401F01F060127D6
:1024D00007FA06F5012C01D10C3004E0022C01D1E1
:1024E000103000E014301AB107682F43076002E093
:1024F0000768AF430760F0BD1AB1838A0B4383823C
:1025000002E0838A8B4383827047028A4FF6F0731E
:102510001A400282028A0A430282704782894FF27D
:10252000FF731A40828182890A438281704721B1F8
:10253000828942F00202828104E082894FF6FD73B3
:102540001A4082817047028A4FF6DF731A40028276
:10255000028A0A430282704721B1028A42F4804211
:10256000028204E0028A4BF6FF731A40028270472F
:10257000C1F308028280704701468888C0F30800D2
:102580007047818941F0010181817047028BD2B28D
:102590000283028B42EA012202837047028B02F41B
:1025A0007F420283028B0A430283704721B1828AF1
:1025B00042F02002828204E0828A4FF6DF731A40E2
:1025C0008282704721B1828A42F01002828204E046
:1025D000828A4FF6EF731A408282704721B1828A55
:1025E00042F00802828204E0828A4FF6F7731A40B2
:1025F0008282704721B1828942F40042828103E0E5
:102600008289C2F30E028281704721B1828A42F42C
:102610000062828204E0828A4FF2FF731A40828253
:102620007047828A4FF6FB731A408282828A0A437D
:102630008282704721B1828A42F00202828204E0E3
:10264000828A4FF6FD731A4082827047024600204C
:10265000B1F5007F00D100BF13880B400BB1012002
:1026600000E00020704701F40072B2F5007F00D155
:1026700000BFCA430280704770B5024600240023A1
:102680000025002040F66A16B14200D100BFC1F318
:10269000421501F01F03012606FA03F3012D02D1B2
:1026A0009689334006E0022D02D1168A334001E0BC
:1026B000968A33400C12012606FA04F41688344038
:1026C00013B10CB1012000E0002070BD10B5002254
:1026D000002340F66A14A14200D100BF0A1201246F
:1026E0009440A3B2DC43048010BD000000380140D8
:1026F0000044004000480040004C004000500040B2
:1027000008B501210420FEF781FEFF20ADF800008E
:1027100010208DF8030003208DF80200694612484E
:10272000FEF7B8FB01211048FEF761FC02210E48BC
:10273000FEF75DFC04210C48FEF759FC08210A480D
:10274000FEF755FC10210848FEF751FC20210648F1
:10275000FEF74DFC40210448FEF749FC8021024869
:10276000FEF745FC08BD00000008014008B5012146
:102770002020FEF74BFE4FF48040ADF80000102003
:102780008DF8030003208DF8020069460448FEF727
:1027900081FB4FF480410248FEF72BFC08BD00008E
:1027A0000014014008B501211020FEF72FFEF02093
:1027B000ADF8000048208DF8030003208DF80200DA
:1027C00069462148FEF766FB08BD10B510211E487A
:1027D000FEF7F3FB48B90A2002F050FD10211A4819
:1027E000FEF7EBFB08B9012010BD20211648FEF7CB
:1027F000E4FB48B90A2002F041FD20211248FEF70F
:10280000DCFB08B90220EFE740210F48FEF7D5FBBB
:1028100048B90A2002F032FD40210B48FEF7CDFBFB
:1028200008B90320E0E780210748FEF7C6FB48B956
:102830000A2002F023FD80210348FEF7BEFB08B901
:102840000420D1E70020CFE7001001402E490860A6
:1028500070471FB501211020FEF7D8FD0121084661
:10286000FEF7D4FD1020ADF80C0048208DF80F00C5
:1028700003208DF80E0003A92448FEF70BFB04216A
:102880000220FEF71DFC1020019001208DF80A00A7
:1028900000208DF808000C208DF8090001A8FEF733
:1028A00019FA0A208DF8000006208DF8010000209A
:1028B0008DF8020001208DF803006846FDF741FE07
:1028C0001FBD08B5002000901020FEF769FA70B116
:1028D00001200F4908700C48006828B16A460021A1
:1028E0000948006803F0D5FD1020FEF76AFA00BF22
:1028F000009838B14FF0805006490860BFF34F8F01
:10290000BFF36F8F00BF08BD3400002000100140EE
:102910003000002004ED00E05B490860704700B51E
:1029200087B001210420FEF771FD01218803FEF725
:102930006DFD4FF40070ADF8180018208DF81B00E5
:1029400003208DF81A0006A95048FEF7A3FA4FF4A9
:102950008060ADF8180004208DF81B0003208DF86E
:102960001A0006A94948FEF795FA4FF4E1300290A3
:102970000020ADF80C00ADF80E00ADF81000ADF879
:1029800014000C20ADF8120002A94148FFF7F7FC33
:10299000012240F225513E48FFF789FD01213C48C4
:1029A000FFF779FD25208DF8040006208DF805003D
:1029B00000208DF8060001208DF8070001A8FDF722
:1029C000C0FD07B000BD38B50020009040F2255191
:1029D0002F48FFF751FE012833D12D48FFF7CCFDDA
:1029E000C4B2232C18D100202A492B4A12788854CB
:1029F0002548006860B100236A462348006801F05A
:102A00000FFE012804D025480088401C2349088077
:102A100000202149087014E01F4800780F2808DAC8
:102A20001D4801780078401C1B4A10701948445416
:102A300007E01B480088401C1949088000201649FF
:102A4000087040F225511248FFF740FE00BF009881
:102A500038B14FF0805013490860BFF34F8FBFF378
:102A60006F8F00BF38BD70B504460D46A1B208484F
:102A7000FFF77EFD00BF40210548FFF7E7FD002876
:102A8000F9D0204670BD0000380000200008014049
:102A900000380140F80000203C00002040000020E9
:102AA0003E00002004ED00E000B589B001210920BE
:102AB000FEF7ACFC01210220FEF7B5FC01213F48E6
:102AC000FEF7B9FA2020ADF8200018208DF8230079
:102AD00003208DF8220008A93948FEF7DBF941F6FA
:102AE0001F40ADF814006320ADF818000020ADF8C9
:102AF0001600ADF81A0005A93248FEF7C3FD6020A4
:102B0000ADF804000120ADF806002F480078ADF8BC
:102B10000A000220ADF80C0001A92A48FEF731FE98
:102B2000012211462748FFF724F91D208DF80000E7
:102B300000208DF8010003208DF8020001208DF89F
:102B400003006846FDF7FDFC08211E48FFF72FFA39
:102B500001211C48FFF7F2F901211A48FFF7EEF8AE
:102B600009B000BD10B501211648FFF7B0FB20B336
:102B700001211448FFF7BCFB13480078134909787A
:102B800008441149087008460078642806DBFF20D5
:102B90000E49087064200C49087009E00A48007862
:102BA000002805DC0120094908700020064908704A
:102BB000054801780348FFF75BFB10BD00081A00C9
:102BC000000C0140000400404300002042000020AF
:102BD00000B591B001214FF40470FEF717FC0121FC
:102BE0000846FEF706FC0320ADF8400000208DF8F3
:102BF000430010A93648FEF74DF93648FDF732FF7D
:102C00003548009035480190002002900220039042
:102C100000200490802005904000069080000790DE
:102C2000202008900002099000200A906946294857
:102C3000FDF7BAFF01212748FDF7E1FF00200B90C7
:102C400001208DF830008DF831004FF460200D9098
:102C500000200E9002208DF83C000BA91E484C3835
:102C6000FDF7FFFC072301220A211B484C38FDF722
:102C700090FD072302220B2117484C38FDF789FDF0
:102C8000012115484C38FDF723FD012112484C382D
:102C9000FDF713FD10484C38FDF731FD00BF0E481D
:102CA0004C38FDF731FD0028F9D10B484C38FDF7C1
:102CB00035FD00BF08484C38FDF735FD0028F9D137
:102CC000012105484C38FDF738FD11B000BD00006A
:102CD00000100140080002404C2401404400002044
:102CE00070B5044625464FF6FF7000EA0525874873
:102CF000FEF779F9C0B2054329468448FEF780F90A
:102D000070BD10B500BFFF20FFF7EAFF002080492B
:102D100008608049C1F88C0101207D49091D0860C7
:102D20007C49C1F884017948FEF750F9041200206B
:102D30007749086004F080000028E4D110BD10B588
:102D40000446FFF7DEFF0020714908607149C1F8B1
:102D50008C016F49091D08602046FFF7C1FF012063
:102D60006B4908600020086010BD08B501214420AF
:102D7000FEF74CFB0E20ADF8000010208DF803008C
:102D800003208DF8020069466348FEF783F84FF68A
:102D90008070ADF8000014208DF8030069465B4890
:102DA000FEF778F8E0215C48FEF723F94FF68071D2
:102DB0005648FEF71CF93820FFF7C1FF0120FFF746
:102DC000BEFF0620FFF7BBFF0C20FFF7B8FF08BDD2
:102DD00010B50446FFF795FF00204D49086001201B
:102DE0004C49C1F88C0100204949091D0860204662
:102DF000FFF776FF0120464908600020086010BDFB
:102E000010B50120FFF79BFF10BD2DE9F0470546E7
:102E10000E4617469846022D01D1C02500E08025B8
:102E2000102E00DD102645EA0600FFF788FF00247B
:102E300006E017F804904846FFF7CAFF601CC4B2CA
:102E40004445F6DBBDE8F0872DE9F84F82468B4616
:102E5000174699464FF00108012500240BE005EBC9
:102E600085004006050EAF4203DB08F1010000F0CB
:102E7000FF08601CC4B2022CF1DB0A2097FBF0F1C2
:102E800000FB11703030C0B28DF802000125022421
:102E90001CE005EB85004006050E97FBF5F0C6B279
:102EA0000A2E05DB0A2096FBF0F100FB1160C6B28A
:102EB00036B106F13000C1B2601E0DF8001003E01B
:102EC0003021601E0DF80010601EC4B2002CE0DC42
:102ED000B8F1030F12DAC8F10300C5B200240BE009
:102EE000B9F1000F03D030200DF8040002E02020DB
:102EF0000DF80400601CC4B2AC42F1DB03236A4647
:102F000059465046FFF781FFBDE8F88F0018014091
:102F100084012142000021420008014008B501213E
:102F20000420FEF773FA1F20ADF8000010208DF882
:102F3000030003208DF8020069462E48FDF7AAFF22
:102F40001F212C48FEF755F808BD30B501460A464A
:102F5000002012E002F0010333B10123264D05EBFE
:102F60008004C4F8803105E00023234D05EB800484
:102F7000C4F880315210431CD8B20428EADB30BDBB
:102F800070B50646012E02D0022E2CD115E0002588
:102F900010E000240AE01949095D01F01F00FFF765
:102FA000D4FF022002F06AF9601CC4B2082CF2DBE4
:102FB000681CC5B20C2DECDB19E0002510E00024E4
:102FC0000AE00F49095D01F01F00FFF7BEFF022074
:102FD00002F054F9601CC4B2082CF2DB681CC5B2C4
:102FE0000C2DECDB03E00020FFF7AFFF00BF00BFBC
:102FF00070BD000000080140000021424800002090
:103000005000002008B501210820FEF7FFF94FF419
:103010000060ADF8000048208DF8030003208DF813
:10302000020069469448FDF735FF08BD08B5012147
:103030000820FEF7EBF94FF40060ADF80000102017
:103040008DF8030003208DF8020069468A48FDF7D9
:1030500021FF08BD10B5FFF7E9FF00208749086090
:1030600040F2EE2000F033FA01208549C1F8AC01AE
:103070000F2000F02CFA10BD10B50024FFF7C2FF9E
:1030800004E0601CC4B2012000F021FA7B488038C3
:10309000006808B1C82CF4DBC82C01DB012010BD8E
:1030A000002404E0601CC4B2012000F010FA734850
:1030B0008038006808B9F02CF4DBF02C01DB01202B
:1030C000EDE70020EBE710B5FFF7B0FF00206B49FC
:1030D0000860022000F0FBF901206949C1F8AC0149
:1030E000FFF790FF0C2000F0F2F964488038006888
:1030F00008B1012400E00024322000F0E8F9204665
:1031000010BD70B50026012508E0FFF7DCFF04467E
:10311000E00140EA6600C6B2681CC5B2082DF4DDC5
:10312000304670BD70B50446FFF780FF012520E0F2
:1031300004F0010664106EB10020504908600220BE
:1031400000F0C5F901204E49C1F8AC013C2000F067
:10315000BEF90CE00020494908603C2000F0B7F9B6
:1031600001204749C1F8AC01022000F0B0F9681C09
:10317000C5B2082DDCDD70BD10B5FFF76BFFFFF7A2
:103180007BFFCC20FFF7CEFF4420FFF7CBFF10BD25
:1031900008B501210820FEF739F94FF40060ADF8B9
:1031A000000010208DF8030003208DF8020069460E
:1031B0003148FDF76FFE4FF400612F48FDF717FF10
:1031C000FFF748FFFFF758FF08BD2DE9FF5FFFF746
:1031D000D3FFFFF73FFFFFF74FFFCC20FFF7A2FF22
:1031E000BE20FFF79FFFFFF78CFF8146FFF789FFA7
:1031F0000446072C07DDE043C4B26FEA090000F083
:10320000FF09002600E001262546280205B205EB4D
:10321000090005B2AEB1284603F0A4FE019003F008
:10322000E2FE0022174BCDE9020103F029FE07461A
:103230000022154B03F024FE824603F0B5FE05B2D2
:1032400015E0681CC04303F08DFE019003F0CBFE37
:10325000074600220B4B03F013FE824600220A4B66
:1032600003F00EFECDE9020103F09EFE05B22846F2
:1032700004B0BDE8F09F0000000C0140AC81214289
:10328000008021420000B03F0000244008B5012129
:103290000420FEF7BBF84FF48070ADF8000010205A
:1032A0008DF8030003208DF8020069465448FDF7AD
:1032B000F1FD4FF480715248FDF799FE08BD08B545
:1032C0004FF48070ADF8000048208DF80300694687
:1032D0004B48FDF7DFFD08BD08B54FF48070ADF831
:1032E000000010208DF8030003208DF802006946CD
:1032F0004348FDF7CFFD08BD70B50025002427E049
:1033000000BF4FF480713E48FDF757FE0028F8D00B
:10331000282000F0DCF84FF480713948FDF74DFEAD
:1033200001280ED100BF4FF480713548FDF745FEEE
:103330000128F8D0C4F1070101208840C0B205433C
:1033400004E0C4F10701012088408543601CC4B239
:10335000082CD5DB284670BD10B50446FFF7BCFF2E
:103360004FF480712648FDF744FE122001F086FFDD
:103370004FF480712248FDF73AFE1E2000F0A7F8B6
:10338000FFF79DFF4FF480711D48FDF716FE88BBC7
:1033900000BF4FF480711A48FDF70FFE0028F8D0E7
:1033A00000BF4FF480711648FDF707FE0128F8D0E2
:1033B000FFF7A2FF2070FFF79FFF6070FFF79CFFF1
:1033C000A070FFF799FFE070FFF796FF2071FFF7FD
:1033D00083FF4FF480710A48FDF709FE2078617879
:1033E0000844A1780844E17808442179884202D150
:1033F000012010BD01E00020FBE70020F9E70000FC
:103400000008014000B589B001210846FEF70BF81D
:1034100001210420FDF7FAFF0120ADF8200018205B
:103420008DF8230003208DF8220008A92048FDF71D
:1034300031FD44F61F60ADF818004720ADF81400C8
:103440000020ADF81A00ADF8160005A94FF0804035
:10345000FEF718F96020ADF804000120ADF8060071
:103460000020ADF80C0040F2DC50ADF80A0001A9D4
:103470004FF08040FEF743F901218807FEF75EFC1C
:1034800001218807FEF766FC09B000BD70B504464F
:103490004FF47A706043B42190FBF1F000F57A703C
:1034A00085B229464FF08040FEF7E0FE70BD000077
:1034B0000008014010B501210420FDF7B4FF4720AA
:1034C000104908804FF6FF70091D088010BD0021CB
:1034D0000C4A121F11800B492839098841F001015B
:1034E000084A283A118000BF0649091F098881420D
:1034F000FAD304492839098821F00101014A283A00
:10350000118070472808004010B5044600F098FD6F
:10351000FA4894E80E000EC000F0A1FD10BD10B5F1
:10352000044600F08DFDF54A07CA84E8070000F064
:1035300096FD10BD86B002F012FA059000BF00BFE4
:103540004FF4FA6105A801F063FE00BFEC4908885A
:1035500003F011FD0646EB4903F054FC0546EA4929
:1035600003F01EFC044603F00BFDC0B28DF80D0005
:10357000E349488803F0FFFC0646E34903F010FCEA
:103580000546E04903F03EFC044603F0F9FCC0B2F6
:103590008DF80E000C208DF80F006846FFF7DCFE5A
:1035A00001281DD19DF8030003F0E5FC0646D7492C
:1035B00003F0F6FB04469DF8020003F0DCFC054630
:1035C000214603F095FB02909DF8000040B28DF873
:1035D0000C009DF80F0040F003008DF80F0002E092
:1035E000FF208DF80C00CA480078401CC8490870BC
:1035F0000846007804281FDBFFF7E7FD0446002C8F
:1036000008DA604203F0AEFC0546C04903F0C8FB8F
:10361000029007E0204603F0A5FC0546BB4903F0F5
:10362000BFFB02909DF80F0040F001008DF80F00E5
:103630000020B749087000BF02F091F9049002A879
:10364000FFF762FF7BE788B00020B2490860FFF710
:103650001DFF4FF48041B048FDF7CBFC00BF0022B6
:103660000121104602F0A7FC0546F5B1142001F037
:1036700005FE1021A948FDF7A0FCB0B9A8480078C4
:10368000401C032190FBF1F201FB1200A4490870D9
:103690000020A0490860A34908704FF480419E486B
:1036A000FDF7A7FC0020A0490870002201A99F484F
:1036B000006801F05AF801282AD1994800780028BA
:1036C00026D19BA101A803F005FB28B9012091494F
:1036D0000860944908701BE097A101A803F0FAFA6A
:1036E00028B900208B4908608E49087010E094A129
:1036F00001A803F0EFFA18B90020FFF7C7FE07E0B2
:1037000092A101A803F0E6FA10B9B420FFF7BEFEBB
:1037100005A8FFF704FF8248007820B101280BD0EC
:10372000022808D1BDE08CA1904803F0F9FE90A1D9
:10373000944803F0F5FECBE000249DF81B0000F058
:10374000010070B19049059803F06AFC09D24FF46A
:1037500080417148FDF74BFC01248CA1894803F09E
:10376000DFFE94B99DF81B0000F0080068B19DF8D9
:103770001A004B2809DD4FF480416748FDF737FCFC
:10378000012487A17F4803F0CBFE94B99DF81B006C
:1037900000F0040068B19DF819003C2809DD4FF4E1
:1037A00080415D48FDF723FC012482A1754803F0A8
:1037B000B7FE44B94FF480415748FDF71AFC82A187
:1037C000704803F0ADFE9DF81B0000F0010050B101
:1037D0008249059803F024FC05D801204D49086072
:1037E000504908701CE09DF81B0000F0080048B12B
:1037F0009DF81A003C2805DB01204649086049492C
:1038000008700DE07649059803F000FC08D29DF899
:103810001A00372804DA00203E4908604149087040
:103820007049059803F0FCFB03D99DF81A00322873
:1038300006DB0020FFF72AFE01206B49087005E037
:10384000B420FFF723FE0020674908709DF9180097
:10385000322805DB0020FFF719FE012062490870BD
:103860009DF918005A2804DB01202A4908602D49D7
:1038700008705EA13D4803F053FE8CB95A480078A9
:1038800008B15FA000E060A003462648007808B1B8
:103890005FA000E029A002465EA13A4803F040FE86
:1038A00016E060A1314803F03BFE4F48007808B1B4
:1038B00053A000E054A003461A48007808B154A071
:1038C00000E01EA0024653A12E4803F029FE00BFCF
:1038D00000BF322001F0D2FCC1E608B502F03FF88B
:1038E000009000BF00BF1421684601F091FC00BFAA
:1038F0000B480078022800D0F4E79DE00801002082
:103900004400002000F07F450000C842CDCCCC3DF3
:103910007E0000209001214200140140001001406F
:1039200058000020590000205B000020000000200B
:1039300046414E5F4F4E000046414E5F4F464600A7
:1039400056454E545F4F50454E00000056454E546C
:103950005F434C4F534500004D6F64653A2052451C
:103960004D4F544520202020000000005C00002026
:103970005761697420666F7220436D642020202097
:10398000000000006D00002000002042416C6172C8
:103990006D3A2054454D50204849474800000000EA
:1039A000416C61726D3A2047415320484947482095
:1039B00000000000416C61726D3A204C4951204C6E
:1039C0004F5720200000000053797374656D204E1E
:1039D0006F726D616C202020000000000000F0413B
:1039E0000000E0410000C8415A0000204D6F6465AE
:1039F0003A204155544F2020202020200000000074
:103A00004F50454E00000000434C5344000000005E
:103A10004F4E200046414E3A25732056454E543AAB
:103A2000257300004D6F64653A204D414E55414C61
:103A30002020202000000000FEF7C7FE0446022CD4
:103A40000ED15048007828B901204F4908604D49EF
:103A5000087016E000204C4908604A49087010E0E0
:103A6000032C06D10020FFF711FD01204749087003
:103A700007E0042C05D1B420FFF708FD00204349DE
:103A800008702FE708B501F06AFF009000BF00BF83
:103A90004FF4FA71684601F0BBFB00BF10233C4AAB
:103AA00000210120FFF7B1F910233A4A002102203A
:103AB000FFF7ABF9EBE71FB501F051FF009000BF36
:103AC00000BF40F6B831684601F0A2FB00BF01A874
:103AD000FFF725FD30A003F013FD3648007808B944
:103AE00035A006E033480078012801D134A000E079
:103AF00035A0014636A003F003FD2248007810B13E
:103B0000AFF2D01001E0AFF2CC10014634A003F0C8
:103B1000F7FC1E48007810B1AFF21C1000E034A092
:103B2000014635A003F0ECFC9DF80B0000F001000D
:103B300040B1019803F057FA044622460B4632A0E2
:103B400003F0DEFC9DF80B0000F0020020B19DF9AF
:103B5000081032A003F0D4FC9DF80B0000F0040024
:103B600020B19DF8091032A003F0CAFC9DF80B00AB
:103B700000F008000028A3D09DF80A1031A003F03F
:103B8000BFFC9DE759000020900121425A0000200F
:103B90005C0000206D0000200D0A2D2D2D20537992
:103BA0007374656D20537461747573202D2D2D0D04
:103BB0000A0000005800002052454D4F54450000B7
:103BC0004155544F000000004D414E55414C0000FE
:103BD0004D6F6465202020203A2025730D0A0000D7
:103BE00046616E20202020203A2025730D0A000017
:103BF000434C4F534500000056656E742020202032
:103C00003A2025730D0A000054656D702020202095
:103C10003A20252E316620430D0A000048756D6953
:103C2000202020203A2025642025250D0A000000B0
:103C30004C696768742020203A2025642025250DD2
:103C40000A00000047617320202020203A202564CC
:103C50002025250D0A00000030B54FF40053AF4871
:103C600000F007042CB1C01D20F00700AB4C041B72
:103C70001B1BAB4C20600024A94D6C60C218083A95
:103C800022F00702A74C22600024A64D2D686C602C
:103C9000A44D2D682C600146541A4C60A14C246838
:103CA0000C60A14D4C682C60A04D4C682C6030BD60
:103CB0002DE9F04704464FF00009CA46DCB114F183
:103CC000090F01D9012000E0002098B9083404F060
:103CD000070080B104F00700C0F10808C8F1FF3008
:103CE000A04201D2012000E0002008B9444402E0D3
:103CF000002400E0002401F085FA8A48006808B931
:103D0000FFF7AAFF012000EBE470002843D0002C4D
:103D100041D08648006884423DD8814E30460568CF
:103D200001E02E462D686868A04202D2286800286B
:103D3000F7D17C48006885422DD0306800F1080931
:103D4000286830606868001B102807D92F19686838
:103D5000001B78606C603068386037607349686851
:103D60000968081A71490860084600686E490968C0
:103D7000884203D26D4800686B490860D5F804A0FA
:103D8000686840F00040686000202860684800686B
:103D9000401C6749086001F00AF9B9F1000F01D130
:103DA000FCF71CFA4846BDE8F08710B501465C48B0
:103DB00000E0006803688B42FBD30246436813446B
:103DC0008B4204D143684C682344436001460A4651
:103DD0004B6813440468A34211D1524C0368246811
:103DE000A34208D04B680468646823444B600368AE
:103DF0001B680B6005E04B4B1B680B6001E0036820
:103E00000B60884200D0016010BD70B50646354693
:103E1000E6B1083D2C466068C00FB8B12068A8B96B
:103E2000606820F00040606001F0ECF93F49606894
:103E3000096808443D4908602046FFF7B6FF3D4841
:103E40000068401C3B49086001F0B1F870BD37487C
:103E50000068704734480068704734480068324949
:103E600008607047704770B504460D46002634B1AF
:103E7000701EB0FBF4F0A84201D2012000E0002047
:103E800050B904FB05F0FFF713FF064626B104FB0B
:103E900005F1304602F013FF304670BD2DE9F041C8
:103EA00004464FF000080026771E01F0ABF91C48CD
:103EB00005687DB10AE008F101086868B04200D9E0
:103EC0006E686868B84200D26F682D68154800684F
:103ED0008542F0D101F06BF86660A760C4F80C80F1
:103EE00000F0AEF811480068206011480068606179
:103EF00010480068A0610C480068206100F0AFF82D
:103F0000BDE8F081002007490860084908600649BB
:103F100008600749086007490860704714010020DD
:103F20008000002088000020900000208C000020ED
:103F3000940000209800002000F1080141604FF03B
:103F4000FF31816000F10801C16001610021016061
:103F5000704700210161704742684A6093688B6036
:103F6000936859609160086103685B1C0360704747
:103F700010B502460B685C1C0CB9106907E002F131
:103F8000080000E04068446824689C42FAD944680C
:103F90004C604C68A160886041600A611468641CD0
:103FA000146010BD01460A69D1E901309860D1E979
:103FB000010358605068884201D188685060002031
:103FC00008611068401E10601068704700BF5020E4
:103FD00080F31188BFF34F8FBFF36F8F00BF00BF17
:103FE000FEE7001F4FF080730360001F21F0010304
:103FF0000360001F2D4B03601438026020387047A7
:1040000000204FF0E02108618861294848610720BD
:104010000861704710B52748006840F47F002549C3
:1040200008600846006840F07F400860FFF7E8FF3E
:10403000002021490860FCF797F8002010BD704768
:1040400000BF502080F31188BFF34F8FBFF36F8FF5
:1040500000BF19480068401C17490860704716489F
:104060000068401E144908600846006820B9002016
:1040700080F3118800BF00BF704710B500BF50200B
:1040800080F31188BFF34F8FBFF36F8F00BF00F035
:10409000D4FE20B14FF0805006491C39086000BFA3
:1040A000002080F3118800BF10BD0000CD3F000844
:1040B0003F19010020ED00E09C0000202DE9F041B7
:1040C00005460E4601272C46002C41D0E06B002807
:1040D0003ED0B91EE06BB1FBF0F0216C884237D3C3
:1040E000FFF7AEFFD4E90F12206801FB0200A060C9
:1040F0000020A06320686060E06B401E226C216895
:1041000000FB0211E160FF2084F8440084F84500C0
:104110009EB9206908B9012000E00020A8B904F187
:10412000100001F09CFC80B14FF08050FE49086007
:10413000BFF34F8FBFF36F8F07E004F11000FFF75D
:10414000FBFE04F12400FFF7F7FEFFF788FF00E015
:1041500000273846BDE8F0812DE9F04106460D46BE
:1041600017469846069C0DB9246000E02760E66378
:10417000256401212046FFF7A1FFBDE8F0812DE96C
:10418000F84304460E4617460025DCB1681EB0FB16
:10419000F4F0B04216D304FB06F010F1490F11D829
:1041A00004FB06F909F14800FFF782FD05464DB111
:1041B000A84608F148083B4642463146204600954D
:1041C000FFF7CAFF2846BDE8F88370B50446FFF73D
:1041D00037FF94F9455010E0606A08B9012000E00B
:1041E000002038B904F1240001F039FC18B101F0C5
:1041F0007FFD00E003E0681E45B2002DECDC00BF4F
:10420000FF2084F84500FFF72AFFFFF719FF94F914
:10421000445010E0206908B9012000E0002048B9AE
:1042200004F1100001F01BFC08B101F061FD681EF3
:1042300045B200E001E0002DECDC00BFFF2084F877
:104240004400FFF70CFF70BD70B50546FFF7F8FEA0
:10425000A86BE96B884201D1012400E00024FFF73C
:10426000FEFE204670BD2DE9F04104460F4615467E
:104270004FF00008A66B206C48B9206800282CD1AC
:10428000A06801F0C8FD80460020A06025E07DB94F
:104290003946226C606802F0F9FC216C60680844C1
:1042A0006060D4E90101884217D32068606014E09F
:1042B0003946226CE06802F0E9FC216CE068411AA2
:1042C000E1602168E068884203D2216CA068411A4D
:1042D000E160022D01D106B1761E701CA06340463C
:1042E000BDE8F0812DE9FF4383B0074688461D46AF
:1042F0004FF000093C4600BFFFF7A2FEA06BE16B48
:10430000884201D3022D28D12A4641462046FFF794
:10431000AAFF0646606A08B9012000E0002068B9DB
:1043200004F1240001F09BFB88B14FF080507E49DE
:104330000860BFF34F8FBFF36F8F08E03EB14FF0BF
:10434000805079490860BFF34F8FBFF36F8FFFF73D
:1043500086FE012007B0BDE8F083059818B9FFF785
:104360007EFE0020F6E7B9F1000F04D101A801F0AC
:104370006AFC4FF00109FFF772FE00F043FFFFF700
:104380005FFE94F94400401C10B9002084F84400FA
:1043900094F94500401C10B9002084F84500FFF74F
:1043A0005EFE05A901A801F055FCF0B92046FFF713
:1043B0004BFFA0B104F11000059901F0F6FA204678
:1043C000FFF703FF00F0F3FD002895D14FF0805078
:1043D00055490860BFF34F8FBFF36F8F8CE72046BE
:1043E000FFF7F3FE00F0E3FD86E72046FFF7EDFE62
:1043F00000F0DDFD0020ADE710B5044654B100200B
:10440000A06020600021E16000231A461946204682
:10441000FFF768FF10BD2DE9F04104460126002793
:10442000224600210120FFF7AAFE05462846FFF795
:10443000E3FF2846BDE8F08170B505462C4601F043
:104440005BFCA16888420CD1E068401EE060E06837
:1044500028B900231A4619462046FFF743FF0126D4
:1044600000E00026304670BD01464A6A22B10A6B60
:104470001268C2F1050000E00020704770B50546E3
:10448000FFF7DEFDA86B08B9012400E00024FFF768
:10449000E6FD204670BD2DE9F34182B005460027B8
:1044A0002C46B84600BFFFF7CBFDA66BFEB1701ED1
:1044B000A063206810B901F077FDA060206908B9F9
:1044C000012000E0002060B904F1100001F0C7FAFB
:1044D00038B14FF0805014490860BFF34F8FBFF3DD
:1044E0006F8FFFF7BCFD012004B0BDE8F081039899
:1044F00018B9FFF7B4FD0020F6E71FB9684601F0D0
:10450000A2FB0127FFF7ABFD00F07CFEFFF798FD53
:1045100094F94400401C10B9002084F8440094F938
:104520004500401C28B901E004ED00E0002084F8BB
:104530004500FFF794FD03A9684601F08BFB40BBE3
:104540002046FFF79BFFF0B1206838B9FFF778FDF0
:10455000A06801F0EDFB8046FFF781FD04F1240027
:10456000039901F022FA2046FFF72FFE00F01FFD0D
:10457000002898D14FF08050F7490860BFF34F8F63
:10458000BFF36F8F8FE72046FFF71FFE00F00FFD90
:1045900089E72046FFF719FE00F009FD2046FFF7E6
:1045A0006DFF0028EED0B8F1000F0BD0FFF748FDEB
:1045B0002046FFF759FF06463146A06801F080FC0F
:1045C000FFF74DFD00208FE72DE9F04106460F462D
:1045D000344601F091FBA168884204D1E068401C98
:1045E000E060012508E039462046FFF754FF054604
:1045F00015B1E068401CE0602846BDE8F08170B568
:1046000004460E4600254CB1A64207D802220021DE
:104610002046FFF7B4FD054605B1AE63284670BDE0
:104620002DE9FF4F81B0054616461F462C4600BFB8
:104630005021EFF3118081F31188BFF34F8FBFF347
:104640006F8F00BF8146A06BE16B884201D3022FC0
:1046500029D194F945A0A06B00903A4620460299D2
:10466000FFF701FE0AF1010070B9606A08B9012084
:1046700000E0002038B904F1240001F0F0F910B195
:104680000EB1012030600BE000BF01F06FF98346EE
:10469000DA4504D20AF1010040B284F8450000BFB7
:1046A0004FF0010801E04FF0000800BF89F31188C6
:1046B00000BF404605B0BDE8F08F2DE9F05F05462C
:1046C0000E462C4600BF5021EFF3118081F3118874
:1046D000BFF34F8FBFF36F8F00BF8046D4F838A071
:1046E000E06B504524D994F945900AF10100A0638C
:1046F00009F1010070B9606A08B9012000E00020EA
:10470000A0B904F1240001F0AAF978B176B1012032
:1047100030600BE000BF01F029F98346D94504D28F
:1047200009F1010040B284F8450000BF012700E014
:10473000002700BF88F3118800BF3846BDE8F09F0E
:1047400070B504460D46206C70B1216CE0680144E0
:10475000E160D4E90210884201D32168E160284673
:10476000226CE16802F092FA70BD2DE9F74183B046
:1047700005460F464FF000082C4600BFFFF760FCCF
:10478000A66BF6B139462046FFF7DAFF701EA0632C
:10479000206908B9012000E0002060B904F1100090
:1047A00001F05DF938B14FF080506B490860BFF3FC
:1047B0004F8FBFF36F8FFFF752FC012006B0BDE8AB
:1047C000F081059818B9FFF74AFC0020F6E7B8F128
:1047D000000F04D101A801F036FA4FF00108FFF7ED
:1047E0003EFC00F00FFDFFF72BFC94F94400401C49
:1047F00010B9002084F8440094F94500401C10B919
:10480000002084F84500FFF72AFC05A901A801F063
:1048100021FAF0B92046FFF731FEA0B104F12400DF
:10482000059901F0C2F82046FFF7CFFC00F0BFFB6E
:104830000028A3D14FF0805047490860BFF34F8F45
:10484000BFF36F8F9AE72046FFF7BFFC00F0AFFB86
:1048500094E72046FFF7B9FC00F0A9FB2046FFF7DC
:104860000DFE00288AD00020A8E72DE9F74382B08A
:1048700005460F464FF000082C4600BFFFF7E0FB4F
:10488000D4F83890B9F1000F1ED0E66839462046BA
:10489000FFF756FFE660606A08B9012000E00020DB
:1048A00060B904F1240001F0DAF838B14FF080501B
:1048B00029490860BFF34F8FBFF36F8FFFF7CFFB1E
:1048C000012005B0BDE8F083049818B9FFF7C7FBD5
:1048D0000020F6E7B8F1000F04D1684601F0B3F903
:1048E0004FF00108FFF7BBFB00F08CFCFFF7A8FBC3
:1048F00094F94400401C10B9002084F8440094F955
:104900004500401C10B9002084F84500FFF7A7FBC4
:1049100004A9684601F09EF900BB2046FFF7AEFDF2
:10492000A0B104F12400049901F03FF82046FFF7FC
:104930004CFC00F03CFB0028A0D14FF08050064911
:104940000860BFF34F8FBFF36F8F97E72046FFF7E5
:104950003CFC00F02CFB91E704ED00E02046FFF763
:1049600034FC00F024FB2046FFF788FD002885D0AA
:104970000020A6E72DE9F74F054616462C4600BF56
:104980005021EFF3118081F31188BFF34F8FBFF3F4
:104990006F8F00BF8046D4F838A0BAF1000F28D03E
:1049A00094F9449020460199FFF7CAFEAAF101004C
:1049B000A06309F1010070B9206908B9012000E085
:1049C0000020A0B904F1100001F049F878B176B1E7
:1049D000012030600BE000BF00F0C8FF8346D945DE
:1049E00004D209F1010040B284F8440000BF01275D
:1049F00000E0002700BF88F3118800BF3846BDE8FB
:104A0000FE8F2DE9F047054689462C4600BF502110
:104A1000EFF3118081F31188BFF34F8FBFF36F8FD6
:104A200000BF0746A06B48B1D4F80C804946204629
:104A3000FFF786FEC4F80C80012600E0002600BFC8
:104A400087F3118800BF3046BDE8F08770B5044693
:104A5000FFF7F6FAA56BFFF702FB284670BD70B5AD
:104A600004462546FFF7ECFAD5E90E10461AFFF783
:104A7000F6FA304670BD01460A46906B704770B535
:104A8000044625462846FFF7C0F970BD0146086C6C
:104A900070470146C86B704701460A46936B0BB9D5
:104AA000012000E00020704710B501460A46936BD4
:104AB000D46BA34201D1012000E0002010BD2DE9FC
:104AC000F04105460E4617462C46FFF7B9FA94F911
:104AD0004400401C10B9002084F8440094F94500BB
:104AE000401C10B9002084F84500FFF7B8FAA06B0D
:104AF00028B93A46314604F1240000F08BFF2046E5
:104B0000FFF763FBBDE8F0812DE9F05F81460E46BB
:104B100090469A460A9F0C9C4FEA8801A522206B7A
:104B200002F0C6F8A8F10100216B01EB800B2BF01D
:104B3000070B7EB1002507E0715D04F1340041559B
:104B4000705D00B902E06D1C102DF5D300BF00218F
:104B500043200155052F00D30427E7626764201D19
:104B6000FFF7F7F904F11800FFF7F3F92461C7F133
:104B70000500A0616462524649465846FFF731FA83
:104B800020600B9808B10B980460BDE8F09F2DE9F8
:104B9000FF5F0746884616469946DDE90EABB00032
:104BA000FFF786F8054675B15420FFF781F80446F3
:104BB0002CB15421204602F082F8256304E02846F7
:104BC000FFF723F900E0002454B100204B463246A1
:104BD0004146CDE900ABCDE902403846FFF794FFEE
:104BE000204604B0BDE8F09F10B5002407E004EBB8
:104BF0008401F94A02EB8100FFF79EF9641C052C41
:104C0000F5D3F648FFF798F9F548FFF795F9F54819
:104C1000FFF792F9F448FFF78FF9F448FFF78CF9A2
:104C2000EE48F3490860EE48F249086010BD10B53F
:104C30000446FFF705FAF0480068401CEE4908609A
:104C4000EE48006840B9ED48046008460068012855
:104C50000DD1FFF7C9FF0AE0E948006838B9E74815
:104C60000068C06AE16A884201D8E4480460E54807
:104C70000068401CE349086000BF94F82C10012034
:104C80008840E14909680843DF49086000BFE16ADC
:104C900001EB8101D04A02EB81014868A060826883
:104CA000E260211D826851608160E16A01EB81014F
:104CB000C94A02EB81026261E16A01EB8101C64AE5
:104CC00052F82110491CE26A02EB8202C24B43F8FF
:104CD000221000BF00BFFFF7C2F9C948006878B1D1
:104CE00000BFC6480068C06AE16A884207D24FF038
:104CF0008050C6490860BFF34F8FBFF36F8F00BF6E
:104D000010BD2DE9FC5F06460F4690469946DDE949
:104D10000CAB4B46424639463046CDE900ABFFF777
:104D200036FF054625B12846FFF781FF012401E043
:104D30004FF0FF342046BDE8FC9F10B50446206BC1
:104D4000FFF763F82046FFF760F810BDA848006839
:104D5000006808B9012000E0002020B14FF0FF30CA
:104D6000AB49086005E0A2480068C0680068A8492F
:104D7000086070472DE9F04105460026FFF760F90D
:104D800015B99E48006800E028460446201DFFF73C
:104D900009F988B900BFE06A00EB80008E4951F83C
:104DA000200040B994F82C100120884096490968E9
:104DB00081439548016000BFA06A18B104F1180052
:104DC000FFF7F0F88F480068401C8E4908608B4858
:104DD0000068844201D1012000E000200746884895
:104DE000006858B157B1211D7F48FFF7B5F88948D1
:104DF0000068401C87490860012606E07E4800687C
:104E0000401E7D490860FFF7A1FFFFF728F9012E3A
:104E100002D02046FFF791FF7948006858B17748E3
:104E20000068844207D14FF0805078490860BFF392
:104E30004F8FBFF36F8FBDE8F0812DE9F041002760
:104E40007548006800287DD174480068451C734887
:104E5000056095B900BF6648D0F8008065480068D5
:104E6000634908606348C0F800806D480068401CD2
:104E70006B490860FFF76AFF00BF6548006885421C
:104E80007DD300BF5A480068006808B9012000E0DF
:104E9000002020B14FF0FF305D4908606EE05448BB
:104EA0000068C068C4686668B54202D258480660A7
:104EB00064E000BF6069D4E902128A60D4E902218B
:104EC0004A60211D42688A4201D1E16841600022A6
:104ED00062610168491E016000BFA06AA0B100BF05
:104EE000A06AD4E907128A60D4E907214A6004F174
:104EF000180142688A4201D1216A41600022A262FF
:104F00000168491E016000BF00BF94F82C10012009
:104F100088403D49096808433B49086000BFE16A91
:104F200001EB81012C4A02EB81014868A060826894
:104F3000E260211D826851608160E16A01EB8101BC
:104F4000254A00E02BE002EB81026261E16A01EB9D
:104F50008101214A52F82110491CE26A02EB8202C7
:104F60001D4B43F8221000BF00BF2449E06A0968C6
:104F7000C96A884286D9012784E700E000BF1F483C
:104F80000068C06A00EB8000134951F82000012836
:104F900000D901272348006800B1012704E0224816
:104FA0000068401C204908603846BDE8F0812DE9C2
:104FB000F04100240026FFF743F800271648006858
:104FC000401E154908600846006800287ED10A483E
:104FD000006800287AD08FE014210020782100207A
:104FE0008C210020A0210020B4210020C821002015
:104FF000A4000020A8000020B0000020A000002095
:10500000BC000020CC000020B800002004ED00E02F
:10501000D0000020AC000020DC000020B400002004
:10502000C8000020C4000020C0000020FE48C06866
:10503000C46800BFA06AD4E907128A60D4E90721D6
:105040004A6004F1180142688A4201D1216A416034
:105050000022A2620168491E016000BF00BF6069B2
:10506000D4E902128A60D4E902214A60211D426813
:105070008A4201D1E1684160002262610168491EF3
:10508000016000BF00BF94F82C1001208840E74960
:1050900009680843E549086000BFE16A01EB810146
:1050A000E34A02EB81014868A0608268E260211D4A
:1050B000826851608160E16A01EB8101DC4A02EBA8
:1050C00081026261E16A01EB810100E03EE0D84AC1
:1050D00052F82110491CE26A02EB8202D44B43F8D9
:1050E000221000BF00BFD349E06A0968C96A88423C
:1050F00002D90120D0490860CB48006808B90120D6
:1051000000E00020002891D00CB1FFF71FFECB4833
:10511000056865B100BFFFF790FE10B10120C649D8
:1051200008606D1E002DF6D10020C4490860C248F9
:10513000006858B1012600BFBE4800683007C0496A
:105140000860BFF34F8FBFF36F8F00BFFEF787FF7D
:105150003046BDE8F0812DE9F04705460E46B948D6
:105160000768B948D0F80080B848D0F80090B14836
:105170000068001DFEF716FF50B9AE48006890F8B1
:105180002C1001208840A94909688143A748016083
:10519000681CE0B9DEB100BFAD494868A54909689F
:1051A0008860A44982680968CA60A2490968091D23
:1051B000826851609F490968091D8160A44A9D4920
:1051C00009684A6111460968491C116018E07C1998
:1051D000984800684460BC4206D296480168091DA0
:1051E0004846FEF7C5FE0BE092480168091D40469F
:1051F000FEF7BEFE97480068844201D295480460DD
:10520000BDE8F08794480068401C934908607047E7
:105210002DE9F047044688464FF00009FFF7F2FFFA
:1052200088480668206800EB08052068B04207D966
:105230002068A8420BD9B54209D94FF0010906E010
:105240002068A84201D8B54201D94FF00109256074
:10525000B9F1000F03D0A81B0021FFF77CFFFFF777
:10526000A6FE07463FB94FF0805075490860BFF36E
:105270004F8FBFF36F8F4846BDE8F08770B5044687
:10528000002544B1FFF7BEFF00212046FFF763FF72
:10529000FFF78DFE05463DB94FF080506849086024
:1052A000BFF34F8FBFF36F8F70BD70B50446FEF72D
:1052B000C7FE14B95F48006800E020460646F56A5C
:1052C000FEF7CDFE284670BD70B5024600BF5025E2
:1052D000EFF3118485F31188BFF34F8FBFF36F8F06
:1052E00000BF214612B9534C246800E014462346FF
:1052F000D86A00BF81F3118800BF70BD70B5044645
:10530000FEF79EFE14B94B48006800E020460646B2
:10531000756CFEF7A4FE284670BD70B5024600BF4E
:105320005025EFF3118485F31188BFF34F8FBFF33E
:105330006F8F00BF214612B93E4C246800E014462E
:105340002346586C00BF81F3118800BF70BD2DE962
:10535000F04780460D464FF00009052D00D3042587
:10536000FEF76EFEB8F1000F02D13248006800E08F
:1053700040460446666CAE4271D0B5420BD92D480A
:105380000068844211D02B480068C06AA8420CD241
:105390004FF0010909E027480068844201D101204B
:1053A00000E00020012800D18146E76AE16A606CD4
:1053B000884202D0E06AA84200D2E5626564A06932
:1053C00000F0004010B9C5F10500A06107EB8701AE
:1053D000174A02EB81016069884201D1012000E097
:1053E0000020D8B3201DFEF7DDFD30B90120B84004
:1053F0000E49096881430D48016000BF94F82C10E4
:10540000012088400949096808430849086000BF2D
:10541000E16A01EB8101064A02EB81014868A06064
:105420008268E260211D1BE0A0210020B80000205E
:1054300014210020A0000020C4000020C000002093
:1054400004ED00E0B4000020A4000020A80000202B
:10545000C8210020D0000020DC00002019E026E058
:10546000826851608160E16A01EB8101F94A02EBD7
:1054700081026261E16A01EB8101F64A52F8211072
:10548000491CE26A02EB8202F24B43F8221000BF91
:1054900000BFB9F1000F09D000BF4FF08050EE49B6
:1054A0000860BFF34F8FBFF36F8F00BF00BFFEF7E1
:1054B000D6FDBDE8F08770B5E848006818B1012056
:1054C000E74908604AE00020E549086000BFE54878
:1054D0000068046B4FF0A536E24800680068E149B7
:1054E0000968096B88420FD92068B0F1A53F0BD13C
:1054F0006068B0F1A53F07D1A068B0F1A53F03D126
:10550000E068B0F1A53F09D0D648006800F1340545
:105510002946D4480068FAF76CFE00BF00BF00BF00
:10552000D1480068B0FA80F0C0F11F0100BF01EB64
:105530008102C84B03EB820042685268426000F16E
:1055400008024368934201D1C26842604268D2684F
:10555000C44B1A6000BF00BF1846006870BD70B52C
:105560000546FEF76DFD15B9BE48006800E0284607
:105570000446201DFEF716FD88B900BFE06A00EB67
:105580008000B44951F8200040B994F82C10012053
:105590008840B54909688143B348016000BFA06AEB
:1055A00018B104F11800FEF7FDFC211DAF48FEF70D
:1055B000D3FC002009E004F15001095C012903D16A
:1055C000002204F150010A54401C0128F3DBFEF7CD
:1055D00046FDA748006828B1FEF732FDFFF7B6FB8D
:1055E000FEF73DFD9F480068844217D1A04800683F
:1055F00040B14FF0805098490860BFF34F8FBFF320
:105600006F8F0BE0994806689A480068864203D17C
:1056100000209449086001E0FFF74DFF70BD10B510
:10562000024600231146914C4869A04201D1012055
:1056300000E00020E0B1904C886AA04201D1012036
:1056400000E00020A0B9886A08B9012000E000202D
:1056500070B10123002007E001F15004245C012C0B
:1056600001D1002302E0401C0128F5DB00BF00BF90
:10567000184610BD70B505462C467A48006884422D
:105680004CD0002C4AD0FEF7DBFC2046FFF7C7FFCA
:10569000002841D0201DFEF785FC00BF94F82C1097
:1056A000012088407049096808436F49086000BFBD
:1056B000E16A01EB8101674A02EB81014868A06061
:1056C0008268E260211D826851608160E16A01EBBD
:1056D0008101604A02EB81026261E16A01EB8101B2
:1056E0005C4A52F82110491CE26A02EB8202594BD3
:1056F00043F8221000BF00BF00BF5A480068C06ACC
:10570000E16A884207D24FF0805053490860BFF3E6
:105710004F8FBFF36F8F00BFFEF7A1FC70BD2DE967
:10572000F04106460027344600BF5021EFF31180B8
:1057300081F31188BFF34F8FBFF36F8F00BF054612
:105740002046FFF76CFF002844D04448006800283A
:105750003BD14449E06A0968C96A884203D90127F4
:1057600001203F490860201DFEF71CFC00BF94F893
:105770002C10012088403C49096808433A490860D8
:1057800000BFE16A01EB8101324A02EB8101486806
:10579000A0608268E260211D826851608160E16AD8
:1057A00001EB81012B4A02EB81026261E16A01EBAC
:1057B0008101284A52F82110491CE26A02EB820258
:1057C000244B43F8221000BF04E004F118012A48DA
:1057D000FEF7C2FB00BF85F3118800BF3846BDE865
:1057E000F08110B516E0FEF72BFC2448C068C468B1
:1057F000201DFEF7D7FB1F480068401E1D490860AA
:105800001F480068401E1E490860FEF728FC20461D
:10581000FFF793FA1A4800680028E4D110BD00BFD2
:10582000FFF7DFFF0B4800680128F9D94FF08050DF
:1058300009490860BFF34F8FBFF36F8FF0E7F0B5F2
:1058400087B0012600200390049005900690002761
:10585000002420E01421002004ED00E0DC00002002
:10586000C4000020A0000020B8000020C8210020B3
:10587000BC000020B0000020A0210020B4210020A6
:10588000AC000020FAA0005D03A9085503A8005D44
:1058900000B902E0641C0F2CF4D300BF002003A960
:1058A0000855002511E0F44FF44800EB8500002175
:1058B0000B468022CDE9001003A93846FFF721FAF4
:1058C0000646012E00D002E06D1C012DEBDB00BF6F
:1058D000304607B0F0BD10B5FFF7B1FF0446012C0C
:1058E00002D101F088F80446012C14D100BF5020E9
:1058F00080F31188BFF34F8FBFF36F8F00BF4FF05E
:10590000FF30DF4908600120DE4908600020DE49E1
:105910000860FEF77FFBDD48006810BD70B501F040
:1059200016F90546FFF726FA002405E0D34951F899
:105930002400FFF71FFA641C012CF7DBFFF751FF6F
:1059400000BF502080F31188BFF34F8FBFF36F8FDC
:1059500000BF0020CB490860FEF771FB70BDCA494B
:10596000086870470021C84A10687047C848006836
:105970007047014611B9C748006800E00846024672
:1059800002F13400704770B50446FFF73BFCFEF7A8
:1059900057FBC14800682044BF490860FEF75FFB21
:1059A000FFF705FB0546284670BD70B505460C4659
:1059B000B848016818312846FEF7DAFA0121204676
:1059C000FFF7C9FB70BD70B504460D46164645F09D
:1059D0000040B0490968886100BF6068AD49096846
:1059E000C861AC49826809680A62AA490968183125
:1059F00082685160A749096818318160A549096822
:105A00008C622168491C216000BF01213046FFF7EC
:105A1000A2FB70BD70B504460E46154600BF606817
:105A20009C490968C8619B49826809680A6299496A
:105A30000968183182685160964909681831816097
:105A4000944909688C622168491C216000BF0DB12E
:105A50004FF0FF3629463046FFF77DFB70BD70B52D
:105A60000346D868C16800BF886AD1E90745A560C8
:105A7000D1E90754656001F118044568A54201D1D8
:105A80000C6A446000258D620468641E046000BFD7
:105A900082480068002842D100BF4869D1E9024528
:105AA000A560D1E9025465600C1D4568A54201D18D
:105AB000CC68446000254D610468641E046000BF2A
:105AC00000BF91F82C400120A040754C2468204371
:105AD000734C206000BFCC6A04EB8404714D05EB6D
